:020000040800F2
:10000000C80F0020AD3500088D3300088F3300087D
:100010009133000893330008953300080000000076
:1000200000000000000000000000000097330008FE
:1000300099330008000000009B3300089D3300083E
:10004000E9350008ED350008F1350008F535000800
:10005000F9350008FD3500080136000805360008AE
:10006000093600080D36000811360008A5330008CF
:10007000AF330008B93300081536000819360008F8
:100080001D360008213600082536000829360008EC
:100090002D3600083136000835360008C333000815
:1000A000393600083D36000841360008453600085C
:1000B000493600084D360008D5330008513600088F
:1000C00055360008593600085D36000861360008CC
:1000D00065360008693600086D360008713600087C
:1000E00075360008793600087D36000810B5040022
:1000F000002C01D101202FE094F83D00002805D10B
:10010000002084F83C00200000F043FF022084F827
:100110003D00211D206800F02AFC012084F84600E3
:10012000012084F83E00012084F83F00012084F87B
:100130004000012084F84100012084F842000120A1
:1001400084F84300012084F84400012084F845002D
:10015000012084F83D00002010BD90F83D100129D9
:1001600001D001202FE0022180F83D100168C9680C
:1001700051F001010268D1600168DFF884219142E9
:100180000DD00168B1F1804F09D00168DFF874210A
:10019000914204D00168DFF8702191420CD10168CE
:1001A000896811F0070106290CD00168096851F02F
:1001B00001010068016005E00168096851F0010172
:1001C000006801600020704710B50400002C01D1C8
:1001D00001202FE094F83D00002805D1002084F88C
:1001E0003C00200000F090FE022084F83D00211D1C
:1001F000206800F0BCFB012084F84600012084F850
:100200003E00012084F83F00012084F840000120D6
:1002100084F84100012084F84200012084F8430062
:10022000012084F84400012084F84500012084F86E
:100230003D00002010BD10B50400002902D194F843
:100240003E000BE0042902D194F83F0006E00829A3
:1002500002D194F8400001E094F84100012801D057
:1002600001204AE0002904D1022084F83E00C0B2F7
:1002700011E0042904D1022084F83F00C0B20AE052
:10028000082904D1022084F84000C0B203E0022013
:1002900084F84100C0B20122206800F007FD184830
:1002A0002168814205D12168496C51F400412268DE
:1002B0005164216881420CD02068B0F1804F08D091
:1002C00020681049884204D02068DFF8B0108842C6
:1002D0000CD12068806810F0070006280CD0206838
:1002E000006850F001002168086005E0206800689F
:1002F00050F0010021680860002010BD00000000DF
:10030000002C0140000400400008004010B504002B
:10031000002C01D101202FE094F83D00002805D1E8
:10032000002084F83C00200000F0FFFD022084F84B
:100330003D00211D206800F01AFB012084F84600D2
:10034000012084F83E00012084F83F00012084F859
:100350004000012084F84100012084F8420001207F
:1003600084F84300012084F84400012084F845000B
:10037000012084F83D00002010BD0000000800406E
:1003800070B504000D00002C01D101205CE094F850
:100390003D00002805D1002084F83C00200000F03A
:1003A00088FD022084F83D0020688168DFF8800124
:1003B000014020688160211D206800F0D8FA206883
:1003C0008168206882692068036A28680143DFF831
:1003D00064010240A868AE6950EA06200243DFF8D3
:1003E00058010240DFF854010240E868EE6950EA23
:1003F0000620024328692E6A360356EA0016324365
:1004000033F0220368686D6950EA051003432068E1
:1004100081602068826120680362012084F84600C0
:10042000012084F83E00C0B2012084F83F00C0B231
:10043000012084F84200C0B2012084F84300C0B219
:10044000012084F83D00002070BD000038B5040094
:1004500094F83E0094F83F2094F8423094F84350CA
:10046000002910D1C0B2012802D1DBB2012B01D08A
:1004700001205BE0022084F83E00C0B2022084F834
:100480004200C0B230E0042910D1D2B2012A02D118
:10049000EDB2012D01D0012048E0022084F83F0098
:1004A000C0B2022084F84300C0B21DE0C0B20128EF
:1004B00008D1D2B2012A05D1DBB2012B02D1EDB2B3
:1004C000012D01D0012031E0022084F83E00C0B2AD
:1004D000022084F83F00C0B2022084F84200C0B27B
:1004E000022084F84300C0B2002902D0042906D0BB
:1004F0000BE001220021206800F0D8FB0FE0012270
:100500000421206800F0D2FB09E0012200212068CC
:1005100000F0CCFB01220421206800F0C7FB20681A
:10052000006850F0010021680860002032BD000022
:10053000F8BFFFFFFCFCFFFFF3F3FFFF0F0FFFFF10
:1005400010B504002068006980071AD52068C068CB
:10055000800716D57FF0020021680861012020770E
:100560002068806910F0030F03D0200000F088FDA0
:1005700005E0200000F085FD200000F083FD002054
:1005800020772068006940071AD52068C0684007B6
:1005900016D57FF0040021680861022020772068CA
:1005A000806910F4407F03D0200000F069FD05E071
:1005B000200000F066FD200000F064FD00202077A0
:1005C0002068006900071AD52068C068000716D5A2
:1005D0007FF0080021680861042020772068C06946
:1005E00010F0030F03D0200000F04AFD05E02000CA
:1005F00000F047FD200000F045FD00202077206836
:100600000069C0061AD52068C068C00616D57FF0FC
:10061000100021680861082020772068C06910F464
:10062000407F03D0200000F02BFD05E0200000F00B
:1006300028FD200000F026FD0020207720680069BA
:10064000C0070AD52068C068C00706D57FF0010042
:1006500021680861200000F016FD2068006900068E
:100660000AD52068C068000606D57FF080002168A2
:100670000861200000F008FD2068006940060AD5E6
:100680002068C068400606D57FF0400021680861F8
:10069000200000F0FAFC2068006980060AD5206876
:1006A000C068800606D57FF0200021680861200020
:1006B00000F0ECFC10BD70B504000E00002594F8AD
:1006C0003C00012801D102205EE0012084F83C00BA
:1006D000002A12D1F36872683168206800F029FAA4
:1006E0002068806930F00C00216888612068816989
:1006F000B06801432068816141E0042A13D1F368A6
:1007000072683168206800F05BFA2068806930F414
:1007100040602168886120688069B16850EA0120E2
:10072000216888612BE0082A12D1F3687268316869
:10073000206800F073FA2068C06930F00C0021686E
:10074000C8612068C169B06801432068C16116E0D2
:100750000C2A13D1F36872683168206800F078FAC7
:100760002068C06930F440602168C8612068C069B1
:10077000B16850EA01202168C86100E0012500202D
:1007800084F83C002800C0B270BD70B504000E00B3
:10079000002594F83C00012801D102206FE00120DF
:1007A00084F83C00002A06D0042A1BD0082A31D045
:1007B0000C2A46D05DE03100206800F00AF920687C
:1007C000806950F00800216888612068806930F0F5
:1007D00004002168886120688169306901432068CC
:1007E000816147E03100206800F01FF920688069CE
:1007F00050F40060216888612068806930F480606E
:100800002168886120688069316950EA0120216887
:1008100088612FE03100206800F038F92068C06955
:1008200050F008002168C8612068C06930F00400F9
:100830002168C8612068C169306901432068C161CD
:1008400018E03100206800F051F92068C06950F4C8
:1008500000602168C8612068C06930F48060216848
:10086000C8612068C069316950EA01202168C86107
:1008700000E00125002084F83C002800C0B270BDD3
:1008800038B50400002594F83C00012801D102206D
:100890006CE0012084F83C00022084F83D002068D0
:1008A000806830F0770030F47F40226890600868FC
:1008B00000284DD010284BD0202849D0302847D0D0
:1008C00040283BD0502825D060282DD0702807D054
:1008D000B0F5805F03D0B0F5005F0ED03DE03DE0A5
:1008E000CB684A688968206800F0D5F9206880687C
:1008F00050F077002168886030E0CB684A688968EA
:10090000206800F0C8F92068806850F480402168B1
:10091000886023E0CA684968206800F03FF95021E8
:10092000206800F0B0F919E0CA684968206800F052
:1009300062F96021206800F0A6F90FE0CA684968F2
:10094000206800F02BF94021206800F09CF905E0B8
:100950000968206800F097F900E00125012084F87B
:100960003D00002084F83C002800C0B232BD10B425
:100970000368874CA04208D0B0F1804F05D0854A6B
:10098000904202D0844A904203D133F070034A6807
:100990001343A04208D0B0F1804F05D07D4A904269
:1009A00002D07D4A904203D133F44073CA681343A6
:1009B00033F080034A69134303608A68C2620A689D
:1009C0008262A04201D1096901630121416110BC29
:1009D000704770B4046A026A5208520002624568A5
:1009E000836933F070039B089B000A68134334F05B
:1009F00002048A681443664EB04205D134F00804FC
:100A0000CA68144334F00404B04207D135F4807549
:100A100035F400754A6915438A6915434560836159
:100A200049684163046270BC704770B4036A026A2B
:100A300032F0100202624468826932F4E04232F419
:100A400040720D6852EA052233F020038D6853EAA4
:100A500005134F4DA84206D133F08003CE6853EA08
:100A6000061333F04003A84209D134F4806434F40F
:100A700000644D6954EA85048D6954EA8504446034
:100A8000826149688163036270BC704770B4046A14
:100A9000026A32F4807202624568C36933F07003FF
:100AA0009B089B000A68134334F400748A6854EA74
:100AB0000224374A904206D134F40064CE6854EAE6
:100AC000062434F48064904209D135F4805535F41D
:100AD00000554A6955EA02158A6955EA02154560CA
:100AE000C3614968C163046270BC704730B4036A73
:100AF000026A32F4805202624468C26932F4E0420F
:100B000032F440720D6852EA052233F400538D68C6
:100B100053EA05331E4DA84204D134F480444D6994
:100B200054EA85144460C26149680164036230BCC0
:100B3000704770B4066A046A6408640004628569D8
:100B4000134CA04208D0B0F1804F05D0114CA04208
:100B500002D0114CA04201D1012400E00024E4B2F3
:100B6000002C03D0AD08AD002A4302E02A0052F069
:100B7000010232F0F0021B0113F0F0031A4336F0C9
:100B80000A0611F00A0131438261016270BC7047AC
:100B9000002C0140000400400008004010B4046A2A
:100BA000036A5B085B000362836933F0F00353EA76
:100BB000021334F00A0421438361016210BC7047C0
:100BC00030B4056A046A34F010040462846934F4B1
:100BD000407454EA022434F470441B0313F4704349
:100BE000234335F0A005090111F0A00129438361D9
:100BF000016230BC704710B4046A036A33F010031A
:100C00000362836933F4704353EA023334F0A0047F
:100C100054EA01148361046210BC704730B4056A61
:100C2000046A34F480740462C469A408A4002243F2
:100C300032F0F0021B0113F0F0031A4335F4007593
:100C4000090211F400712943C261016230BC70478E
:100C500030B4056A046A34F480540462C46934F41C
:100C6000407454EA022434F470441B0313F47043B8
:100C7000234335F40055090311F400512943C3619E
:100C8000016230BC7047826832F0700251F0070197
:100C900011438160704710B4846834F47F44114379
:100CA00051EA03212143816010BC704710B4012434
:100CB00011F01F0314FA03F3046A34EA0303036216
:100CC000036A11F01F0112FA01F11943016210BC0D
:100CD000704730B4002513E050F8042BD30744BF0D
:100CE000A9F101039A18091F042942F8045BFAD2FA
:100CF00013468C0744BF15809B1CC90748BF1D7055
:100D000050F8041B0029E7D130BC704781B0DFF8F0
:100D10003003016851F001010160006810F001002A
:100D200000900098DFF81C03016851F080510160C9
:100D3000006810F0805000900098DFF80C130868ED
:100D400030F0E06050F00070086001B0704730B5DE
:100D500085B0040001A8102100F09AF92068DFF89E
:100D6000EC1288423AD1DFF8D802016851F40071E0
:100D70000160016811F4007100910099016851F05F
:100D800004010160006810F0040000900098032046
:100D900001900320029001A9DFF8B40200F07CF971
:100DA000DFF8B052DFF8B002286000206860002051
:100DB000A8608020E8604FF4807028614FF4806064
:100DC00068612020A8610020E861280000F082FA14
:100DD000002801D000F0FAFF25626C6205B030BD3A
:100DE00030B585B004006846102100F051F9206844
:100DF0009A4988425BD19248016851F48051016060
:100E0000016811F4805104910499016851F00401C2
:100E10000160006810F0040004900498B020009075
:100E20000020019000200290894D6946280000F0C2
:100E300033F940200090022001900320039069467E
:100E4000280000F029F9864D864828600020686057
:100E50000020A8608020E8600020286100206861F0
:100E60000020A8610020E861280000F033FA002883
:100E700001D000F0ABFFE5646C627B4D7B482860DD
:100E8000102068600020A8608020E86000202861B1
:100E9000002068610020A8610020E861280000F0BF
:100EA00019FA002801D000F091FFA5646C6205B02A
:100EB00030BD18B585B0040001A8102100F0E8F895
:100EC00020686B4988421DD15D48016851F400617A
:100ED0000160016811F4006100910099016851F00E
:100EE00004010160006810F00400009000984FF4C5
:100EF00040700190002002900020039001A9544806
:100F000000F0CAF806B010BD81B00068B0F1804FA3
:100F100009D14C48016851F001010160006810F0EE
:100F200001000090009801B0704718B585B004002A
:100F300001A8102100F0ACF820684E49884226D163
:100F40004048016851F002010160006810F00200A1
:100F5000009000983A48016851F00801016000686B
:100F600010F00800009000981020019000200290DE
:100F70000020039001A9404800F08EF8324908682B
:100F800030F4406050F0E06050F40060086006B05B
:100F900010BD80B500683949884211D129480168DF
:100FA00051F004010160006810F004000090009806
:100FB000002200211E2000F076FF1E2000F084FF9A
:100FC00001BD18B585B004006846102100F060F836
:100FD0002068B0F1804F30D11948016851F0040108
:100FE0000160016811F0040104910499016851F055
:100FF00008010160006810F00800049004984FF4A4
:1010000000400090022001900220039069461048A1
:1010100000F042F808200090022001900220039086
:101020006946154800F038F80749086830F4407000
:1010300050F0E06050F48070086006B010BD000011
:10104000181002401C10024004000140002401401E
:10105000000801406C0600200800024000300140FA
:10106000B00600201C000240F406002030000240C0
:10107000002C014000040040000C0140000800402A
:10108000704770477047704770477047704701025C
:10109000002200F033BF0000F8B502000023002555
:1010A00014E0DFF8E801066836EA040404600CE0A6
:1010B000DFF8DC010668A64306604868C003F0D587
:1010C000DFF8C8010668344304605B1C0868D84038
:1010D000002800F0B88001269E400C683440B442DD
:1010E000F3D14868002827D001281AD002281DD043
:1010F00003282FD0112816D012281AD0654FB842D5
:101100001AD0654FB84217D0644FB84214D0644F1C
:10111000B84211D0634FB8420ED0634FB8420BD0E3
:101120001AE0CD6818E0CD682D1D15E0CD680835B2
:1011300012E0CD680C350FE08868002801D1042545
:1011400007E08868012802D10825166101E008251A
:10115000566101E00025FFE7B4F5807F01D217005A
:1011600000E0171DB4F5807F02D25FEA830C03E034
:10117000B3F1080C5FEA8C0C0F26D7F800E016FAE2
:101180000CF03EEA000E15FA0CFC5CEA0E0CC7F8F7
:1011900000C04868C00098D54448076857F0010768
:1011A0000760006810F0010000900098404F1800A0
:1011B000800857F820C013F00300C0B280008640BA
:1011C0003CEA060C3B48824201D100260FE03A4837
:1011D000824201D101260AE03848824201D102262A
:1011E00005E03748824201D1032600E0042613F0CF
:1011F0000300C0B28000864056EA0C0C180080083C
:1012000047F820C04868C00204D52E480668264327
:10121000066003E02B480668A64306604868800223
:1012200004D5294806682643066003E02648066878
:10123000A6430660486880037FF53AAF1448066805
:101240002643066039E7F1BD806889B2084201D0C3
:10125000012000E00020C0B27047D2B2002A02D0C4
:1012600089B2016102E089B209040161704780B569
:1012700016490A6803009BB21A4205D0020092B2D6
:101280000A6080B200F024F801BD000000040140B3
:101290000404014000001110000012100000211091
:1012A000000022100000311000003210181002401F
:1012B0000800014000080140000C014000100140FE
:1012C00000140140080401400C04014014040140D2
:1012D000704700000021002801D101202BE00268A6
:1012E000DFF888128A181421B2FBF1F18900016439
:1012F000DFF87C12C163022180F8211001680A68BE
:101300006FF30D12436881680B43C1680B43016999
:101310000B4341690B4381690B43C1690B431A437A
:1013200001680A6000218163012180F821100021F9
:1013300080F820100020704770B50400002594F854
:101340002000012801D1022037E0012084F820008C
:1013500094F8210001282AD1022084F821000020DD
:10136000A0632068006840084000266830602000C4
:1013700000F00EF9E06A002806D02068006850F0FE
:101380000E00216808600BE02068006830F004005F
:10139000216808602068006850F00A002168086031
:1013A0002068006850F001002168086003E0002018
:1013B00084F8200002252800C0B270BD002190F8FA
:1013C0002120022A06D004218163002180F8201008
:1013D000012018E00268126832F00E0203681A60F9
:1013E000026812685208520003681A600123026CF6
:1013F0009340C26B5360012280F82120002280F8C4
:1014000020200800C0B2704710B5C16B0A6801689F
:101410000B680424016C8C4022423DD059073BD517
:1014200001680968890605D40168096831F004017A
:101430000268116001684F4A914201D1042123E002
:1014400001684D4A914201D140211DE001684B4A9B
:10145000914202D14FF4806116E00168484A9142FE
:1014600002D14FF480410FE00168464A914202D117
:101470005FF4802108E00168434A914202D15FF4A1
:10148000800101E05FF08061404A1160C16A00297B
:101490006AD0C16A884767E00224016C8C4022420E
:1014A00043D0990741D501680968890608D40168C5
:1014B000096831F00A0102681160012180F82110E9
:1014C00001682C4A914201D1022123E001682A4A95
:1014D000914201D120211DE00168284A914202D1A8
:1014E0004FF4007116E00168254A914202D14FF491
:1014F00000510FE00168234A914202D15FF40031AC
:1015000008E00168204A914202D15FF4001101E035
:101510005FF000711D4A1160002180F82010816A7F
:10152000002921D0816A88471EE00824016C8C4084
:10153000224219D0190717D50168096831F00E0148
:10154000026811600122016C8A40C16B4A6001216E
:101550008163012180F82110002180F82010016BA7
:10156000002901D0016B884710BD0000F8FFFDBFC6
:1015700000000240080002401C000240300002400F
:1015800044000240580002406C0002400400024047
:1015900030B40125046CA540C46B656004686360C9
:1015A0004368102B04D103689A600068C16003E0AF
:1015B000036899600068C26030BC70472DE9F84F3D
:1015C00000F0B6FC00F04FF900F03FFB00F019FB13
:1015D00000F090F900F0CAF900F0DAF900F0FAF939
:1015E00000F03DFA00F093FA00F0D1FADFF86497CA
:1015F0004FF480614846FFF727FE040014F0010411
:101600004FF400614846FFF71FFE400010F0020053
:101610000443DFF844070470DFF83C070078002833
:1016200005D0022826D022D3032824D025E0DFF8D5
:101630002C07002180F82C10002180F82B100021AD
:1016400080F82A1064210184012180F82F100A21DA
:1016500080F82E10052180F82D10012180F832101D
:101660000A2180F83110052180F8301005E000F0E3
:101670004EFA02E001E000F08BF9DFF8E4A65046F4
:1016800000F004FD504600F0D6FDDFF8D8460222F7
:101690002100504600F018FDDFF8CC06FEF75DFD96
:1016A0003C21DFF8C806FEF7D1FE012000F054FF10
:1016B00027886588DFF8B8B69BF800800020DFF83F
:1016C000B41608600020DFF8B0160860DFF88C66FA
:1016D000012086F836003C21DFF8A006FEF7ABFDBE
:1016E00007E0504600F0A7FD02222100504600F01E
:1016F000EBFC40469BF80010C0B28842F9D0DFF8FE
:10170000800600F06BFF9BF80080BFB22088C719ED
:101710007F10B7842788DFF8400600780028E0D0E3
:10172000022858D009D30328DBD1300000F05CFF39
:10173000DFF8500600F0E8FAD3E701214846FFF74A
:1017400083FD01283FD102214846FFF77DFD012896
:1017500018D1DFF834C6BCF8000000282BD0BCF844
:10176000000041F28831884225DAD6E90623BCF828
:101770000000002110185941C6E906010020ACF80C
:10178000000018E0DFF800C6BCF80000002812D006
:10179000BCF8000041F2883188420CDAD6E9062311
:1017A000BCF800000021101A73EB0101C6E9060124
:1017B0000020ACF80000300000F016FFB6F934004D
:1017C00000F0A2FA06E0002000F09EFA0020DFF808
:1017D000B815088085E701214846FFF735FD012847
:1017E0003DD102214846FFF72FFD012814D1318D4C
:1017F000ADB26088451905FB01F56D133584658828
:10180000308DB6F92010884202DAB6F9280001E0DE
:10181000B6F9200030841AE0318DADB260884519E8
:1018200005FB01F56D136D4235846588318DB6F980
:1018300020205FF0FF304243914205DAB6F92810CC
:101840005FF0FF30414301E0B6F9201031843000F1
:1018500000F0CAFEB6F9340000F056FA02E00020AB
:1018600000F052FA3DE700B593B009A82821FFF730
:101870000FFC68461421FFF70BFC05A81021FFF7A9
:1018800007FC092009905FF480300A9000210B9139
:1018900001210D9101210F910221109111905FF40E
:1018A000E010129009A801F0DDF8002801D000F046
:1018B0008DFA0F20009002200190002002904FF43A
:1018C00080600390002004900221684601F0B3FA82
:1018D000002801D000F07AFA022005904FF4404031
:1018E000079005A801F0A4FB002801D000F06EFAD3
:1018F00013B000BD1FB5684600210022002380E818
:101900000E00DFF85C44DFF8840420604FF4807040
:10191000A06000202073002020755FF46020E0614B
:101920000020606002202061200000F013FB0028EE
:1019300001D000F04BFA0020009001200190072018
:1019400002906946200000F0ABFC002801D000F0B6
:101950003DFA01200090022001906946200000F02D
:101960009FFC002801D000F031FA1FBD80B5DFF8E0
:101970001004DFF81C1401600321416040F6FF7180
:10198000816000F0FDFD002801D000F01FFA01BDCC
:1019900080B5DFF80004DFF8001401600021416029
:1019A000002181600021C1600021016100214161AD
:1019B0000021816100210162002141624FF4005148
:1019C00081620A21C16201F0B5FB002801D000F05C
:1019D000FDF901BD18B58BB002A82421FFF758FB13
:1019E000DFF8B803D0E90023CDE90023DF4CDFF8AE
:1019F000B0032060472060600020A0604FF6FF70B9
:101A0000E06000202061002060610020A0610120D2
:101A100002900020039001200490002005900120F6
:101A200006900020079001200890002009900120D6
:101A30000A9002A92000FEF7A3FC002801D000F0C4
:101A4000C5F900200090002001906946200001F0B7
:101A5000DDFB002801D000F0B9F90CB010BD18B5BD
:101A600089B0D048D0E90023CDE9002302A81C2189
:101A7000FFF70EFBC14C5FF08040206047206060A4
:101A80000020A0604FF47A70E06000202061002008
:101A9000A0612000FEF798FB002801D000F096F925
:101AA00000200090002001906946200001F0AEFB6C
:101AB000002801D000F08AF96020029000200390F5
:101AC0000020049000200690002202A92000FEF7CA
:101AD0005CFE002801D000F079F92068806930F0C0
:101AE000080021688861042202A92000FEF74DFE4B
:101AF000002801D000F06AF92068806930F40060A5
:101B0000216888612000FFF75CFA0AB010BD10B5AB
:101B100086B0A548D0E90023CDE9002302A8102112
:101B2000FFF7B6FAA14CA248206041F61F40606062
:101B30000020A06042F21070E060002020610020D0
:101B4000A0612000FEF7E2FB002801D000F03EF982
:101B500000200090002001906946200001F056FB13
:101B6000002801D000F032F90020029001200390FB
:101B70000020049003200590002202A92000FEF717
:101B80009AFD002801D000F021F906B010BD10B573
:101B900086B002A81021FFF77BFA8648D0E900231F
:101BA000CDE90023704C8448206040F2CF20606073
:101BB0000020A0604FF47A70E06000202061802057
:101BC000A0612000FEF792FA002801D000F0FEF894
:101BD0004FF48050029002A92000FEF751FE002829
:101BE00001D000F0F3F80020009000200190694639
:101BF000200001F00BFB002801D000F0E7F806B050
:101C000010BD80B56D48016851F0010101600068A8
:101C100010F0010000900098002200210B2000F03D
:101C200042F90B2000F050F9002200210C2000F0B6
:101C30003AF90C2000F048F9002200210D2000F0B4
:101C400032F90D2000F040F901BD18B585B06846A5
:101C50001021FFF71DFA5A48016851F01001016088
:101C6000016811F0100104910499016851F02001FC
:101C70000160016811F0200104910499016851F09C
:101C800004010160016811F00401049104990168E4
:101C900051F008010160006810F0080004900498F9
:101CA000484C00224FF400512000FFF7D6FA4FF4C1
:101CB000005000900120019000200290022003902B
:101CC00069462000FFF7E8F940F603400090002045
:101CD0000190002002901F4C69462000FFF7DCF9BC
:101CE0002020009038480190002002906946200092
:101CF000FFF7D2F900220021172000F0D4F81720B6
:101D000000F0E2F806B010BD010009B205290BDBB6
:101D1000010009B2174A116000B21749086001209A
:101D20000E4981F8360013E0010009B211F1040FE9
:101D30000EDA010009B20F4A116000B25FF0FF3104
:101D400048430D4908605FF0FF30044981F83600D0
:101D500070470000000C0140B80700200000002080
:101D60003807002074070020240600204C050020BE
:101D7000B9070020340000403800004094050020DE
:101D8000680700200CFEFFFFB00700200024014080
:101D900000300040F404002000300140C835000845
:101DA000002C0140D0350008D8350008DC050020A3
:101DB00000040040E0350008000800401410024014
:101DC00018100240001001400000111072B6FEE72A
:101DD00010F00700414B1A684FF6FF010A404049D6
:101DE00051EA00210A431A6070473C480068C0F37A
:101DF00002207047010049B2002908D4012210F0E6
:101E00001F018A40374940B2400941F820207047FD
:101E1000020052B2002A04D40901334A40B21154DC
:101E200007E00901314A40B210F00F00104400F8F9
:101E3000041C704710B410F00700D0F10703052B05
:101E400001D3042301E0D0F10703041D072C01D2C4
:101E5000002000E0C01E012414FA03F35B1E1940A9
:101E6000814014FA00F0401E1040084310BC704737
:101E700080B5411EB1F1807F01D301200EE0401EEC
:101E80001B4908600F215FF0FF30FFF7C1FF002002
:101E900018490860072018490860002002BD80B575
:101EA000FFF796FF01BD70B504000D00160000207D
:101EB000FFF79BFF32002900FFF7BCFF0100200065
:101EC00040B2FFF7A5FF70BD80B540B2FFF792FFAB
:101ED00001BD80B5FFF7CCFF02BD00000CED00E0B6
:101EE0000000FA0500E100E000E400E018ED00E089
:101EF00014E000E018E000E010E000E000B500BFF2
:101F0000130096469446103928BFA0E80C50FAD822
:101F10005FEA417C28BF0CC048BF40F8042BC907CA
:101F200028BF20F8022B48BF00F8012B00BD00009D
:101F300080B50748016851F0100101600320FFF7E8
:101F4000AEFF0F2001F09EF9FEF7E0FE002002BD7B
:101F500000200240F8B504000020002500260027DC
:101F6000002C01D1012090E0A068002801D0207D44
:101F70000028A06A002807D10020E062002084F831
:101F800024002000FEF7E3FE200000F07FFAA16AA3
:101F9000C90674D40100C9B2002970D1A16A31F414
:101FA000885151F00201A1626268E1690A43217B14
:101FB00052EA41021643A168B1F5807F02D0A168C0
:101FC000012902D14FF4807100E000210D43217DF1
:101FD000012911D1217B002906D1A169491E49039C
:101FE00051F400610D4307E0A16A51F02001A162A4
:101FF000E16A51F00101E1622168496831F4694107
:102000000D4321684D6021688A68DFF860140A403A
:10201000324321688A60A168B1F5807F02D0A1684F
:10202000012902D14FF4807100E00021B1F5807FD9
:1020300002D127697F1E3F052168C96A31F470010A
:102040000F432168CF6221688A68DFF824140A40B0
:10205000B24208D10021E162A16A31F0020151F0DF
:102060000101A16210E0A06A30F0020050F01000FF
:10207000A062E06A50F00100E062012004E0A06A82
:1020800050F01000A0620120C0B2F2BD10B50400F3
:10209000002094F82400012801D1022013E001203F
:1020A00084F82400200000F0F1F90100C9B20029F1
:1020B00005D1A16A31F4885151F00101A1620021DA
:1020C00084F82410C0B210BD2DE9F04104000D00C9
:1020D00016000020DFF8A4732068B84204D02068FE
:1020E000DFF89013884205D1DFF88C03006810F404
:1020F000702000E00020002840F0978094F8240031
:10210000012801D1022094E0012084F8240020005D
:1021100000F06FF980464046C0B2002840F0818050
:10212000A16ADFF86003014051F48071A162DFF819
:1021300044132068884209D1DFF83C03006810F49A
:10214000702F01D1012002E0002000E001200028D2
:102150000ED0A06A30F48010A0622068406840056C
:102160001FD5A06A30F4005050F48050A06218E0EF
:10217000A06A50F48010A0622068B84202D02068A3
:10218000884205D1DFF8F002006810F4806000E0BA
:102190000020002805D0A06A30F4005050F4805090
:1021A000A062A06AC00404D5E06A30F00600E062D4
:1021B00001E00020E062002084F824000FF22130CA
:1021C000216A88620FF26930216AC8620FF26D30AD
:1021D000216A08637FF00200216808602068806837
:1021E00050F480702168886033002A00206810F164
:1021F0004C01206AFFF7A0F82068806810F4602086
:10220000B0F5602F06D12068806850F4A0002168E6
:1022100088600CE02068806850F480102168886035
:1022200005E0002084F8240001E05FF0010840464A
:10223000C0B2BDE8F08110B50400002094F824007D
:10224000012801D102202AE0012084F82400200086
:1022500000F01CF90100C9B200291CD1216889686D
:1022600031F4807122689160216A91F8211002296D
:1022700011D1206AFFF7A2F80100C9B2002906D1E6
:10228000A16A31F4885151F00101A16203E0A16A11
:1022900051F04001A162002184F82410C0B210BDA9
:1022A00078B40200080000210023009392F8243043
:1022B000012B01D102209AE0012382F824304368E7
:1022C000072B12D213685C6B1F2543685E1E052323
:1022D0005E43B540AC43056843685E1E05235E431C
:1022E000B5402C4313685C6329E043680D2B12D280
:1022F00013681C6B1F254368DE1F05235E43B54032
:10230000AC4305684368DE1F05235E43B5402C439C
:1023100013681C6313E01368DC6A1F254368B3F17C
:102320000D0605235E43B540AC4305684368B3F131
:102330000D0605235E43B5402C431368DC62036839
:102340000A2B14D31368DC6807250368B3F10A0667
:1023500003235E43B540AC4385680368B3F10A06C6
:1023600003235E43B5402C431368DC600FE0136821
:102370001C690725066803235E43B540AC438568A6
:10238000066803235E43B5402C4313681C61036851
:10239000102B02D00368112B24D11368374CA342B1
:1023A0001BD113689B681B021CD413689B6853F4F1
:1023B00000031468A3600068102813D13048006837
:1023C000314BB0FBF3F30A204343009300980028FD
:1023D00008D00098401E0090F8E7906A50F0200066
:1023E00090620121002082F824000800C0B272BC73
:1023F000704738B5040000200020009020688068F5
:10240000C0072FD42068806850F0010021688860E0
:102410001B4800681C49B0FBF1F0009002E00098F6
:10242000401E009000980028F9D100F051FF0500EF
:1024300020688068C00715D400F04AFF401B0328BD
:10244000F6D320688068C007F2D4A06A50F010006C
:10245000A062E06A50F00100E062002084F82400ED
:10246000012000E0002032BD00000000FDF7E1FF88
:10247000FE0E1FFF002801400424014000240140FB
:102480003C000020FEF1FFFF40420F0038B5040081
:10249000002020688068C0071FD520688068400839
:1024A00040002168886000F013FF05002068806804
:1024B000C00712D500F00CFF401B0328F6D320689C
:1024C0008068C007F2D5A06A50F01000A062E06AF0
:1024D00050F00100E062012000E0002032BD000069
:1024E00080B5416A8A6A12F0500F1CD1886A50F494
:1024F000007088620868806810F46020B0F5602F72
:102500000DD1087B00280AD1886A30F48070886277
:10251000886AC00403D4886A50F001008862080009
:1025200000F0DCFE02E0096A096B884701BD00008B
:1025300080B5406A00F0D3FE01BD000080B5406A5E
:10254000816A51F040018162C16A51F00401C162A7
:1025500000F0C6FE01BD000038B5040000F0B8FE72
:10256000050014F1010F02D004480078041900F0AE
:10257000AFFE401BA042FAD331BD00BF4000002097
:1025800038B50400002C01D1012026E04CF6CC40E7
:102590002168086045F2555021680860606821682C
:1025A0004860A0682168886000F092FE05002068FD
:1025B000C06810F0030F0BD000F08AFE401B2828E3
:1025C000F5D32068C06810F0030FF0D0032004E0BA
:1025D0004AF6AA2021680860002032BD4AF6AA21E6
:1025E00000680160002070472DE9F84F0400DFF813
:1025F0000894D4E906010200D4E90201121AA9F8EC
:102600000020DFF8F883B9F9001094F82A0041435C
:10261000C8F8001094F82B00002829D0DFF8E01348
:1026200000200860002209E00B68DFF8D8031500DD
:10263000EDB230F91500C3180B60521C1000C0B287
:10264000C728F1DB0A68B9F900008218642092FB00
:10265000F0F008600A6894F82B0042430A604FF4D7
:10266000C772DFF8A053291D280000F03BFE03E0ED
:102670000020DFF88C130860DFF88C136425DFF886
:102680008423B9F90030B2F900001B1A94F82C0029
:1026900043436B430B60DFF874630868B04200DAB1
:1026A0000E6042F211770868B84202DB42F2107005
:1026B0000860DFF84C331868B04200DA1E60186812
:1026C000B84202DB42F210701860B9F800001080C6
:1026D000DFF83C23B9F9000092F800C00FFA8CFC37
:1026E00060450ADA1078002807D012785FF0FF30D2
:1026F0004243B9F90000824232DBC6480078002824
:1027000008D1D8F800201868821808688218C248D2
:1027100002600AE0D8F80020186882180868821859
:102720005FF0FF304243BC480260BB490868BB4AC7
:10273000904200DA0E6042F210700A68824200DBBA
:102740000860B7480278022A0AD00078002807D02B
:102750000968208D414342F2107091FBF0F0208413
:10276000DFF8C092218C2088091AA9F80010DFF840
:10277000B882B9F9001094F82D004143C8F8001050
:1027800094F82E00002829D0A849002008600022D3
:1027900009E00B68A64894465FFA8CFC30F91C00EF
:1027A000C3180B60521C1000C0B2C728F1DB0A68C6
:1027B000B9F900008218642092FBF0F008600A6802
:1027C00094F82E0042430A604FF4C772DFF860A20B
:1027D0001AF10401504600F085FD02E00020934903
:1027E00008609449924AB9F90030B2F900001B1A06
:1027F00094F82F0043436B430B600868B04200DA43
:102800000E600868B84202DB42F210700860874B25
:102810001868B04200DA1E601868B84202DB42F263
:1028200010701860B9F800001080834AB9F90000F0
:1028300092F800C00FFA8CFC60450BDA1078002883
:1028400008D012785FF0FF304243B9F900008242AD
:10285000C0F2CF8079480078002808D1D8F800204D
:102860001868821808688218754802600AE0D8F86B
:10287000002018688218086882185FF0FF30424311
:102880006F4802606E48DFF894810168414500DAC4
:10289000066042F210790168494501DBC0F80090FA
:1028A000E18C0068414342F2107091FBF0F06084CB
:1028B000DFF890A1B4F92210A28C94F9360000FB45
:1028C0001211AAF80010DFF880B1BAF9001094F8DC
:1028D00030004143CBF8001094F83100002829D093
:1028E0005A4900200860002209E00B6858489446C5
:1028F0005FFA8CFC30F91C00C3180B60521C1000EE
:10290000C0B2C728F1DB0A68BAF900008218642057
:1029100092FBF0F008600A6894F8310042430A60C4
:102920004FF4C7724A48011D0090009800F0DAFC8D
:10293000009802E00020454908604649444ABAF937
:102940000030B2F900001B1A94F83200434305FB33
:1029500003F50D600868B04200DA0E600868B842FE
:1029600001DBC1F80090394B1868B04200DA1E60F4
:102970001868B84201DBC3F80090BAF80000108074
:10298000354ABAF9000015782DB2A8420ADA107853
:10299000002807D012785FF0FF304243BAF90000F8
:1029A000824226DB2D480078002808D1DBF8002081
:1029B0001868821808688218294802600AE0DBF863
:1029C000002018688218086882185FF0FF304243C0
:1029D0002348026022480168414500DA0660016828
:1029E000494501DBC0F8009000680A2190FBF1F036
:1029F000A086BDE8F18F00BFB2070020800700204D
:102A000084070020440000207C070020F0D8FFFF4E
:102A1000BA070020BD07002088070020F1D8FFFF7B
:102A2000B8070020B407002090070020940700207A
:102A3000D40100208C070020BB070020BE07002027
:102A400098070020B6070020A0070020A407002058
:102A5000640300209C070020BC070020BF07002063
:102A6000A80700202DE9FC410400002C01D1012021
:102A7000DFE12078C0076BD5DFF87405016811F03D
:102A80000C01042907D0016811F00C0108290CD1B0
:102A90000068C00309D5DFF854050068800357D5E6
:102AA0006068002854D10120C3E16068B0F5803F20
:102AB00006D1DFF83805016851F48031016026E065
:102AC000606800280AD1DFF82405016831F48031FC
:102AD0000160016831F48021016018E06068B0F5A0
:102AE000A02F0AD1DFF80405016851F480210160AC
:102AF000016851F48031016009E0DFF8F0040168F9
:102B000031F480310160016831F480210160606836
:102B100000280ED000F0DCFB0500DFF8D0040068D0
:102B2000800315D400F0D4FB401B6528F5D30320A7
:102B30007FE100F0CDFB0500DFF8B0040068800302
:102B400006D500F0C5FB401B6528F5D3032070E1D6
:102B5000207880071ED5DFF89804016811F00C0F6B
:102B600007D0016811F00C0108292CD10068C003BE
:102B700029D4DFF878040168890704D5216901297F
:102B800001D0012055E1016831F0F801626951EA94
:102B9000C20101602078000749D5A069002871D0E2
:102BA0000120DFF86014086000F092FB0500DFF8F8
:102BB00050040068800737D400F08AFB401B0328CC
:102BC000F5D3032035E1206900281AD00120DFF871
:102BD0003814086000F07CFB0500DFF81004016881
:102BE000890706D400F074FB401B0328F5D30320AB
:102BF0001FE1016831F0F801626951EAC201016028
:102C0000C8E70020DFF80014086000F061FB050051
:102C1000DFF8D80300688007BCD500F059FB401BE3
:102C20000328F5D3032004E1012000F0CCF920783B
:102C3000400740F196800026DFF8D0532868C00096
:102C400009D4286850F080502860286810F080501F
:102C5000009000980126DFF8B8733868C00524D4C6
:102C6000386850F48070386000F032FB8046386875
:102C7000C0051AD400F02CFBB0EB08006528F6D391
:102C80000320D6E00020DFF87C13086000F020FB72
:102C90000500DFF86C0300688007C8D500F018FB5A
:102CA000401B0328F5D30320C3E0E068012806D1C8
:102CB000DFF86003016851F00101016025E0E06880
:102CC00000280AD1DFF84C03016849084900016077
:102CD000016831F00401016017E0E06805280AD1BD
:102CE000DFF83003016851F004010160016851F020
:102CF0000101016009E0DFF81C030168490849008F
:102D00000160016831F004010160E068002810D022
:102D100000F0DEFA0700DFF8FC020068800719D433
:102D200000F0D6FAC01B41F289318842F3D3032068
:102D30007FE000F0CDFA0700DFF8D80200688007D6
:102D400008D500F0C5FAC01B41F289318842F3D39F
:102D500003206EE0F6B2012E03D1286830F08050D7
:102D60002860E069002863D0DFF88462306810F0E2
:102D70000C0008284AD0E069022834D1DFF89872A4
:102D80000020386000F0A4FA8046DFF8605228681E
:102D9000800107D500F09CFAB0EB08000328F4D3BB
:102DA000032046E0206AB0F5803F05D1316831F458
:102DB0000031A06801433160316831F47411206A38
:102DC0000143606A014331600120386000F080FAFD
:102DD0000400286880012BD400F07AFA001B032835
:102DE000F7D3032025E00020DFF82C12086000F064
:102DF0006FFA0400DFF8F4010068800118D500F0D4
:102E000067FA001B0328F5D3032012E0E0690128CC
:102E100001D101200DE0306810F48031226A914226
:102E200004D110F47010616A884201D0012000E0E2
:102E30000020BDE8F6812DE9F04104000E00002CD1
:102E400001D1012098E0DFF8D451286810F0070084
:102E5000B0420BD22868C008C00030432860286800
:102E600010F00700B04201D0012085E020788007F3
:102E700016D52078400704D55D48016851F4E0611B
:102E800001602078000704D55948016851F4605169
:102E9000016057490A6832F0F002A06802430A60F4
:102EA0002078C00732D56068012805D14F480068F6
:102EB000800310D401205FE06068022805D14B48F0
:102EC0000068800107D4012056E048480068800768
:102ED00001D4012050E0464F3968890889006068B4
:102EE0000143396000F0F4F98046386810F00C00B6
:102EF0006168B0EB810F09D000F0EAF9B0EB08008F
:102F000041F289318842F0D3032035E0286810F07F
:102F1000070086420BD22868C008C00030432860F2
:102F2000286810F00700B04201D0012024E020788A
:102F3000400706D52E490A6832F4E062E068024391
:102F40000A602078000707D52948016831F46051EC
:102F5000226951EAC201016000F010F83049244AA8
:102F60001268C2F30312895CC840234908602348F1
:102F7000006800F087F90020BDE8F0810020002003
:102F80000020002000201A4A116811F00C000428CB
:102F900002D0082802D014E0164813E02148C1F3FB
:102FA0008343C05CC90309D51F491268C2F340427C
:102FB0008A5C10494843B0FBF2F001E01B494843EA
:102FC00000E00C48704781B00B490968C9084FF40C
:102FD0007A72B1FBF2F14843009000BF0098411EA5
:102FE00000910028F9D101B07047000000100240A4
:102FF0000410024000127A003C000020380000203B
:103000002410024080044242000042421C10024050
:103010000070004020100240600042420020024048
:103020009C3500088C3500088E10000800093D0012
:103030002DE9FC410400002000202078C00757D56E
:103040000026374D2868C00009D4286850F0805009
:103050002860286810F08050009000980126314FB9
:103060003868C00511D4386850F48070386000F0BA
:103070002FF980463868C00507D400F029F9B0EB75
:1030800008006528F6D3032047E0274F386810F47E
:10309000407000281FD0616811F4407188421AD036
:1030A000386830F44070214901220A6000220A6029
:1030B0003860C0070FD500F00BF9804638688007EC
:1030C00009D400F005F9B0EB080041F289318842DB
:1030D000F4D3032021E0396831F440716068014382
:1030E0003960F6B2012E03D1286830F08050286094
:1030F0002078800706D50E490A6832F44042A0685D
:1031000002430A602078C00606D509490A6832F4ED
:103110008002E06802430A600020BDE8F6810000FA
:103120001C10024000700040201002404004424247
:103130000410024010B50400002C01D1012063E00E
:10314000606A002806D16068B0F5827F06D0002052
:10315000E06103E00020206100206061A06AB0F51A
:10316000005F94F85100002805D1002084F8500039
:103170002000FDF735FE022084F851002068006829
:1031800030F0400021680860606810F48270A16827
:1031900011F404410843E16811F400610843217C03
:1031A00011F002010843217D11F001010843A169DA
:1031B00011F400710843217F11F03801084394F89D
:1031C000201011F080010843A16A11F40051084356
:1031D00021680860A069000C10F0040021684860B4
:1031E000A06AB0F5005F03D1E06A80B2216808618F
:1031F0002068C06930F400602168C8610020606503
:10320000012084F85100002010BD000010B490F897
:103210003C20012A01D102202CE0012280F83C2030
:10322000022280F83D20026854680268936834F0F6
:1032300070040A6814430268546002680E4CA2428B
:103240000BD00268B2F1804F07D002680B4CA2424B
:1032500003D002680A4CA24205D133F080034968CA
:103260000B4301688B60012180F83D10002180F83C
:103270003C10002010BC7047002C014000040040AE
:103280000008004010B504004FF47A700D49097829
:10329000B0FBF1F00C490968B1FBF0F0FEF719FE44
:1032A000002801D001200CE0102C09D200222100BE
:1032B0005FF0FF30FEF7F7FD04480460002000E0F7
:1032C000012010BD400000203C00002038000020FC
:1032D00001480068704700BFAC0700207047704786
:1032E0007047000062B38B0708D0521E11F8013BF3
:1032F00000F8013B00F024808B07F6D1830740F0F3
:10330000208000BF103A07D330B4B1E83810103A2B
:10331000A0E83810F9D230BC530724BFB1E8081038
:10332000A0E8081044BF51F8043B40F8043BD20722
:1033300024BF31F8022B20F8022B44BF0B78037016
:103340007047121F17D35B0009D151F8043B20F8D6
:10335000023B1B0C121F20F8023BF6D20BE051F887
:10336000043B00F8013B1B0A20F8023B1B0C121F18
:1033700000F8013BF3D238BF121D521E24BF11F8D2
:10338000013B00F8013BF8D870470000FEE7FEE77C
:10339000FEE7FEE7FEE770477047704780B500F034
:1033A00085F801BD80B53848FEF72EF801BD80B51F
:1033B0003648FEF729F801BD80B53548FEF724F8F8
:1033C00001BD80B533480188491C01802020FDF7EC
:1033D0004EFF01BD10B5304C20780A2805D12F4989
:1033E0002F4800F009F8002020702078401C207041
:1033F0002C48FDF7A5F810BDD0B4284A1268546ACD
:10340000294B1A78002A04D100210180012119706A
:103410002DE02200038A92B29A4202D1002101805B
:1034200025E0028A23009BB29A4210D20A681268F1
:10343000D20607D5028A52420968C96A521AA218EE
:10344000028014E0B0F91010611A01800FE00A68E0
:103450001268D20604D5B0F91010611A018006E096
:103460000968CA6A1219B0F91010521A0280D0E91C
:103470000267B0F90020D317B2187B41C0E90223DC
:103480000482D0BC704700006C060020B00600200B
:10349000F4060020B0070020B90700204C050020EA
:1034A0000000002024060020C007002003490A680D
:1034B0000348007882180A60704700BFAC070020FC
:1034C0004000002030B5016884684218416802EB72
:1034D0005103C9070BD54C4409E012F9011B12F83E
:1034E000015B002904F8015B05D5491CF9D19A421A
:1034F000F3D10C3030BD491EF1D5F8E710B50749BE
:1035000079441831064C7C44163404E00A68081DDE
:10351000114488470146A142F8D110BD08000000BF
:1035200024000000AFD7FFFF800700004400002008
:103530000000000091FFFFFF4A0100002200000090
:103540000000002000F00DF8002801D0FFF7D6FFA2
:10355000AFF300800020AFF30080FEF72FF800F0FB
:1035600002F80120704700F001B800000746384615
:1035700000F002F8FBE7000080B5AFF30080024ADC
:1035800011001820ABBEFBE7260002000203040571
:10359000060708090A0B0C0D0E0F101000000000A2
:1035A00000000000010203040607080901488047E3
:1035B0000148004781360008BD350008AFF30080A0
:1035C000AFF30080FFF7BEFF000000000000000026
:1035D00000000000000000000000000000000000EB
:1035E0000000000000000000FFF7FEBFFFF7FEBF75
:1035F000FFF7FEBFFFF7FEBFFFF7FEBFFFF7FEBFFF
:10360000FFF7FEBFFFF7FEBFFFF7FEBFFFF7FEBFEE
:10361000FFF7FEBFFFF7FEBFFFF7FEBFFFF7FEBFDE
:10362000FFF7FEBFFFF7FEBFFFF7FEBFFFF7FEBFCE
:10363000FFF7FEBFFFF7FEBFFFF7FEBFFFF7FEBFBE
:10364000FFF7FEBFFFF7FEBFFFF7FEBFFFF7FEBFAE
:10365000FFF7FEBFFFF7FEBFFFF7FEBFFFF7FEBF9E
:10366000FFF7FEBFFFF7FEBFFFF7FEBFFFF7FEBF8E
:10367000FFF7FEBFFFF7FEBFFFF7FEBFFFF7FEBF7E
:103680007047D9000210100EF2000010FC00032455
:03369000F4000142
:04000005080035BDFD
:00000001FF
