:020000040800F2
:1000000090060020D52E0008E52C0008E72C0008FB
:10001000E92C0008EB2C0008ED2C00080000000083
:10002000000000000000000000000000EF2C0008AD
:10003000F12C000800000000F32C0008F52C00084B
:10004000FD2E0008012F0008052F0008092F0008C9
:100050000D2F0008112F0008152F0008192F000878
:100060001D2F0008212F0008F92C0008072D00087B
:10007000252F0008292F00082D2F0008312F0008F8
:10008000352F0008392F00083D2F0008412F0008A8
:10009000452F0008492F00084D2F00080D2D00089E
:1000A000512F0008552F0008592F00085D2F000818
:1000B000612F0008652F00081B2D0008692F00081C
:1000C0006D2F0008712F0008752F0008792F000888
:1000D0007D2F0008492D0008812F0008852F00087A
:1000E000892F00088D2F0008912F000838B50400D3
:1000F00001D1012032BD00F058F818B900F051F8D4
:1001000000F000FD2CE090F83D10012901D0012005
:100110007047022180F83D100268D16841F001016A
:10012000D160DFF83C210168914218BFB1F1804FE6
:1001300007D0DFF8303199421CBFDFF82C21914203
:1001400006D1896801F00701062907D0026800E09E
:100150000A461168104641F0010101600020704715
:1001600002206870211D206800F09BFA0121A9720D
:100170000120A870E97028716971A871E97128726D
:1001800069726870002032BD38B5040001D10120C9
:1001900032BD00F00AF818B900F003F800F0A1FC35
:1001A000DEE7002129702046704704F13C0568789D
:1001B000704710B5044604F13E0009B9027807E023
:1001C000042908BF427803D008290CBF8278C2787E
:1001D000012A01D0012010BD11B9022202700AE0EB
:1001E000042902D10222427005E0082907BF022239
:1001F00082700223C3702068012200F05AFB00F0D5
:1002000021F818BFB1F1804F06D000F017F81CBFDD
:10021000DFF85400814202D100F00BF801D000F069
:1002200002F8002010BD0A46106840F00100086086
:100230007047886800F0070006287047DFF8242020
:10024000914270472268DFF81800824205D1DFF83A
:10025000C420116841F40041116021688142704757
:10026000002C01400004004000080040D060012242
:10027000206800F01EBBF8B504000D4601D1012036
:10028000F2BD04F13C06707820B90021317020469F
:1002900000F0EFFB022070702268DFF83C039168E9
:1002A00001409160211D206800F0FBF92268DFF811
:1002B0002C1393689769D2F820C0A8680F400743B1
:1002C000A869DFF81C1347EA0027E8680F400743D6
:1002D000E869296947EA0027286A47EA011747EAD7
:1002E000003768682CF022010843696940EA011C64
:1002F00028680343936021688F6101212068C0F85A
:1003000020C0B1720120B070F170B071F1717070E5
:100310000020F2BD442C014070B500F03EF831B928
:10032000012E08BF012B15D100F026F81AE0042990
:1003300008D1012A08BF012D0CD1022242700221EE
:10034000417114E0012E08BF012A03D1012B08BF1F
:10035000012D01D0012070BD00F017F811B1042962
:1003600005D002E00122002103E000F024F8012280
:100370000421FFF77DFF04E00222027002210171D7
:10038000704700F012F8002070BD022505700222AF
:1003900042700223037142717047044604F13E002B
:1003A000067842780379457970472168086840F0FB
:1003B00001000860704720680122002100F079BA2E
:1003C00010B5044620680269910715D5C2689107E7
:1003D00012D56FF00202026101212177806910F0CD
:1003E000030F204602D000F0FFFB03E000F0FDFB0E
:1003F00000F087F80020207720680269510715D5A2
:10040000C268510712D56FF0040202610221217700
:10041000806910F4407F204602D000F0E5FB03E045
:1004200000F0E3FB00F06DF8002020772068016900
:100430000A0715D5C1680A0712D56FF008010161D6
:1004400004222277C06910F0030F204602D000F08A
:10045000CBFB03E000F0C9FB00F053F8002020774D
:1004600020680269D10615D5C268D10612D56FF091
:100470001002026108212177C06910F4407F2046F4
:1004800002D000F0B1FB03E000F0AFFB00F039F860
:100490000020207720680169CA0708D5C168CA070B
:1004A00005D56FF001010161204600F09FFB206837
:1004B00001690A0608D5C1680A0605D56FF08001F2
:1004C0000161204600F093FB20680269510608D5BF
:1004D000C3685A0605D56FF040010161204600F05F
:1004E00087FB206801698A060AD5C1688A0607D594
:1004F0006FF0200101612046BDE8104000F079BB9B
:1005000010BD204600F076BB002084F83C00284651
:10051000704770B500F058F801D1022070BD01207D
:1005200084F83C0032B1042A15D0082A25D00C2AC0
:1005300034D045E0206800F0E3F82168886940F095
:1005400008008861886920F0040088618A69306940
:1005500002438A6135E0206800F0F4F82068816980
:1005600041F400618161816921F480618161816967
:10057000326941EA0221816123E0206800F00BF931
:100580002168C86940F00800C861C86920F004000B
:10059000C861CA6930690243CA6112E0206800F08C
:1005A00022F92068C16941F40061C161C16921F487
:1005B0008061C161C169326941EA0221C16100E023
:1005C0000125FFF7A1FF70BD0446002594F83C000B
:1005D00001280E4670470000F8BFFFFFFCFCFFFF3C
:1005E0000303FFFF70B5044604F13C060025307894
:1005F000012801D1022070BD0122327002207070EA
:100600002368DFF830029A6802409A6008680200A6
:1006100018BF102830D0202818BF30282CD04028F0
:1006200026D0502819D060281BD0702806D0B0F5ED
:10063000805F27D0B0F5005F07D022E000F02CF8F3
:100640002168886840F0770005E000F025F821680F
:10065000886840F48040886014E000F019F8502168
:100660000BE0CA684968206800F0FFF8602104E0E8
:1006700000F00EF8402100E00146206800F007F984
:1006800000E001250121717000203070284670BD06
:10069000CA6849682068D7E0CB684A6889682068DA
:1006A000FDE070B50368644C644E654AA04218BF13
:1006B000B0F1804F03D0904218BFB04209D123F06F
:1006C00070054B682B43A0421CBFB0F1804F904295
:1006D00001D0B04203D123F44072CB6813434A697E
:1006E00023F0800313430360A0428B68C3620A684F
:1006F000826202D10A6953490A600123436170BDD5
:1007000030B500F090F822F00202436885690C6869
:1007100025F073052C438D681543474A90420BD151
:1007200023F44073CA6825F0080515434A691A4343
:100730008B6925F004051343436084614968416374
:10074000056230BD70B5046A026A22F010020262CE
:1007500024F02004456883690A688E6823F4E64320
:1007600043EA0223344A904244EA06140DD1CA688F
:100770004E6924F0800444EA02148A6925F4406535
:10078000164324F0400445EA8605456083614968C4
:100790008163046270BD70B5046A026A22F48072DB
:1007A000026224F400744568C2690B688E6822F006
:1007B00073021343204A904244EA06240DD1CA68CA
:1007C0004E6924F4006444EA02248A6925F4405501
:1007D000164324F4806445EA06154560C361496800
:1007E000C163046270BD70B5036A026A22F480526C
:1007F000026223F400534468C2690D688E6822F4D3
:10080000E64242EA05220C4DA84243EA063304D1EF
:100810004D6924F4804444EA85144460C261496807
:100820000164036270BD026A036A5B085B000362D5
:10083000704700008800FFFF002C014000080040C6
:1008400000040040302C014010B5036A046A6408BB
:100850006400046223F00A03846924F0F00444EA8B
:10086000021484611943016210BD10B5036A046A61
:1008700024F01004046223F0A003846924F470447B
:1008800044EA0234846143EA0113036210BD8268C2
:1008900022F07002114341F007018160704710B5EA
:1008A000846824F47F442143114341EA0321816099
:1008B00010BD10B501F01F01046A01238B409C4359
:1008C000046202FA01F1046A2143016210BD0EE0E4
:1008D00002684368024408305FEAC37C44BF4B446B
:1008E0005B1E52F804CB43F804CB091FF9D150F832
:1008F000041B0029ECD1704718B58BB000F00FF83D
:1009000047200021AC4CAD4A606000914FF6FF706B
:10091000E06001910120A160216161615DE024211D
:10092000002202A800F068B918B589B00022009230
:1009300001921C2102A800F05FF90320A04C606026
:100940004FF47A704FF080420021E0602260A16095
:100950002161A1612046FFF717FC08B100F096FB6A
:1009600000F054F808B100F091FB602000210290E3
:10097000039100220691049202A92046FFF7C9FDC7
:1009800008B100F083FB2168886920F008008861C5
:10099000042202A92046FFF7BCFD08B100F076FB57
:1009A0002168886920F400608861204600F0C4F85E
:1009B0000AB010BD18B58BB0FFF7B1FF0021009150
:1009C0000191002047217F4C7F4A6160A0604FF673
:1009D000FF71E160206100210120A161029003917B
:1009E0000490059106900791089009910A90226061
:1009F00002A92046FFF73FFC08B100F047FB00F0DA
:100A000005F808B100F042FB0CB010BD00200090CA
:100A100001906946204600F03BBB10B586B010211E
:100A2000FFF77EFF40F2CF20684C694A60600021EA
:100A30004FF47A70E06000918020A0610191226003
:100A4000A16021612046FFF751FB08B100F01EFBB9
:100A50004FF48050029002A92046FFF7C3FD08B171
:100A600000F014FBFFF7D2FF08B100F00FFB06B057
:100A700010BD18B585B000F098F822684F4B554866
:100A800055499A420BD10C6844F400640C600A6822
:100A900002F4006200F01AF84FF440710CE04A4B87
:100AA0009A4211D14A6842F002024A604A6802F052
:100AB000020200F00BF8C021049A00910023019378
:100AC0000293694600F016FB06B010BD0492049B29
:100AD0000A6842F004020A60096801F00401049106
:100AE000704781B00068B0F1804F09D13B48016880
:100AF00041F001010160006800F0010000900098E1
:100B000001B0704701683248814200D0704780B51B
:100B10003248016841F0040101600022006800F0E1
:100B2000040000900021009B1E2000F0FCFBBDE8AB
:100B300002401E2000F016BC18B585B000F035F854
:100B40002168B1F1804F2ED12348026842F004029F
:100B50000260016801F004010491049A016841F007
:100B6000080101600222006800F0080004904FF4C0
:100B7000004004990090019203926946154800F0E4
:100B8000B9FA0820009002220192039269461448A3
:100B900000F0B0FA1349086820F4407040F0E060BB
:100BA00040F48070086006B010BD04461021002299
:100BB000684600F021B8000090000020002C0140A1
:100BC000D80000202001002000040040680100201F
:100BD0000008004000080140181002401C100240AC
:100BE000000C014004000140704770477047704797
:100BF00070477047704700004018491C1CBFB1F196
:100C0000010100F8012DF9D1704700002DE9F84FDE
:100C100000F0D0FB00F072F900F0DEFB00F06EFC9B
:100C200000F084FC00F016FDFFF766FEFFF77CFE87
:100C3000FFF7C0FEFFF7F1FE00F022FDDFF8D04322
:100C40000021204600F0FDF9012104F1380000F0F8
:100C5000F8F9DFF8C0530121284600F01DFB411EC2
:100C6000894104F15800C90F017601224FF48041F7
:100C7000284600F017FB01224FF40041284600F0FF
:100C800011FB04F15801087E08B9FFF793FEDFF865
:100C90008843DFF87CB3DFF88473204600F0D2FD90
:100CA000204600F06BFE04220BF17401204600F098
:100CB000E0FDDFF86C03FFF726FA3C21DFF8640360
:100CC000FFF72AFB3C21DFF86003FFF725FB01203B
:100CD00000F0A0FF0BF158000BF15801B0F81C9088
:100CE000CC8B858BB1F81E80467ED04800210160F8
:100CF000002242603846FFF75CFA04213846FFF7CD
:100D000058FA8DF800600BF158060FE0584600F0D5
:100D100095FF0BF1380000F091FF0021584600F0DC
:100D200031F901210BF1380000F02CF99DF8000099
:100D3000717E8842FAD0BE4801F081F8707E8DF84D
:100D40000000B18B89444FEA5900ABF82400B6F893
:100D50001C90308C45196D08B580358C307E00288C
:100D6000D4D002286DD0E1D24FF48061A94800F0C0
:100D700093FA01282CD10221A64800F08DFADBE974
:100D800006230021B6F824E001280AD1BEF1000FA5
:100D900012D041F2883086450EDA12EB0E024B413A
:100DA00009E0BEF1000F07D041F28830864503DA32
:100DB000B2EB0E028B418E46CBE90623A6F824E067
:100DC000584600F03BFF0021584600F0DBF805E0F4
:100DD0000021002000F0D6F80020B0844FF400611C
:100DE0008C4F384600F058FA012823D104213846A8
:100DF00000F052FADBE914230021B6F826E00128BE
:100E000041F288370DD1BEF1000F05D0BE4503DA9F
:100E100012EB0E024B418E46CBE91423A6F826E0D6
:100E200061E0BEF1000FF7D0BE45F5DAB2EB0E027D
:100E30008B41F0E70121002000F0A4F80020F084AD
:100E400074E7DFF8D0A14FF4806100F054F8012876
:100E500025D1022100F04FF801280BD1BBF8281052
:100E6000F28B17194F43F48BB1EB673FACBF79138B
:100E700009B20CE0BBF82800F18B0F1947437F1330
:100E80007F423946F48BC842BCBF01464942ABF8A9
:100E90002010584600F0D2FE0021584601E0002103
:100EA000002000F06FF84FF4006100F024F80128F2
:100EB0001ED1042100F01FF83289718C01284144B1
:100EC00007D151434913B6F822808A420ADA11B297
:100ED00008E0514349134942B6F82280CA42BCBFD8
:100EE0001146494231800BF1380000F0A7FE18E7A7
:100EF0000121002018E7504600F0CEB900B593B0AC
:100F00002821002209A8FFF777FE14210022684655
:100F1000FFF772FE1021002205A8FFF76DFE0921E0
:100F2000099101234FF480310A910D930F93119190
:100F3000002202234FF4E0110B921093129109A8A2
:100F400000F084FF08B100F0A1F80F20009002210A
:100F500000234FF480620191029303920493684648
:100F600001F0F5F808B100F091F802224FF4404189
:100F70000592079105A801F0C5F908B100F086F8BF
:100F800013B000BDF8B500F134044FF0FF35B4F9EB
:100F90000030264E1F4F6FF00302E9B9052B25489C
:100FA0000BDB00F049F801224FF48051384600F085
:100FB00079F9B4F90000306019E0934205DA00F0E5
:100FC0003BF800224FF4805119E0BDE8F8400122BF
:100FD0004FF4804100F066B9052B0BDB01224FF482
:100FE0000051384600F05EF9B4F90000706001214C
:100FF000A170F1BD93420ADA00224FF40051384645
:1010000000F050F9B4F9000040423060A570F1BD25
:1010100010000020000C01403C020020D8000020FD
:1010200068010020900000202001002034000040D2
:10103000800200200010014000224FF4804100F0A7
:1010400031B910B500F12A0100240C73C0E9024443
:10105000C0E9064404804FF46162028504844FF4C1
:101060008052C2848484012244844C8104820A20F8
:101070004A71087105220120CA7008728C704C7088
:101080000C700A220520CA71887110BD72B6FEE785
:1010900070B500F13C031A78012A01D1022070BD1D
:1010A00001241C7002225A7006687568B4680A68C8
:1010B00025F070051543756002680C48824218BF20
:1010C000B2F1804F05D0084DAA421CBF08488242A9
:1010D00004D1486824F080040443946001215970CD
:1010E0000020187070BD000000040040002C01407A
:1010F000000800402DE9F84F00270024704BDFF86E
:10110000C481DFF8C491DFF8C4B14FF00F0A024682
:1011100010E0D3F800E000EA0E00186009E0C3F820
:1011200004C04D68ED03F4D518684EEA000EC3F80C
:1011300000E07F1C0D6835FA07F000F0AB8001205D
:1011400000FA07FC0CEA050EE645F2D14D683DB306
:10115000012D1AD0022D1DD0032D2ED0112D16D009
:10116000122D1AD05A4885421CBF5A48854217D0C2
:10117000594885421CBF5948854211D0584885427C
:101180001CBF584885420BD018E0CC6816E0CC68EC
:10119000241D13E0CC68083410E0CC680C340DE05A
:1011A000886808B9042409E0012819BF0824C2F896
:1011B00014C00824C2F810C000E00024BEF5807FEF
:1011C00003D210464FEA870C04E0A7F10805101D72
:1011D0004FEA850C06680AFA0CF5AE4304FA0CF5E2
:1011E00045EA060CC0F800C04868C000A1D5D9F88F
:1011F00000C04CF0010CC9F800C0BD00D9F80000D7
:1012000000F00100009005F00C0C0098B80858F8A8
:1012100020600AFA0CF5AE435A4508BF00250ED0EF
:10122000314DAA4208BF012509D0304DAA4208BF5E
:10123000022504D02E4DAA420CBF0325042505FA31
:101240000CF545EA060C48F820C06FEA0E004D6820
:10125000ED0204D59D684EEA05059D6005E0D3F8D2
:1012600008C000EA0C0CC3F808C04D68D3F80CC0E5
:10127000AD024CBF4EEA0C0C00EA0C0CC3F80CC0DB
:101280004D68D3F804C0AD034CBF4EEA0C0C00EA25
:101290000C0C44E7BDE8F18F8068084018BF0120BE
:1012A000C0B2704702B909040161704711490A6868
:1012B00003461A421CBF0B6001F098B8704700004B
:1012C00000040140080001401810024000080140DD
:1012D0000000111000001210000021100000221068
:1012E0000000311000003210000C014000100140DD
:1012F00000140140140401400A01010002D4274BEC
:101300005A547047264801F00F01014401F8042C9B
:10131000704724490A6860F30A2240F2FA5060F3E9
:101320001F420A60704770B51E4C2368C3F3022346
:101330000124C3F10705052D2FBF0F26C3F10706B2
:1013400004FA06F6761E1D1D072D34BF0023DB1E92
:101350003140994004FA03F3BDE870405B1E1A4027
:101360001143C9E7010007D4012200F01F010E4B11
:101370008A40400943F820207047401EB0F1807F2A
:1013800001D30120704709494860F02208480270E3
:1013900000238B6007220A600020704700E400E011
:1013A00018ED00E00CED00E000E100E010E000E0EE
:1013B00023ED00E080B50748016841F010010160AD
:1013C0000320FFF7A6FF0F2001F012F801F030F81C
:1013D000002002BD0020024030B585B0102100225F
:1013E0006846FFF709FC3948394D0268394C42F02C
:1013F00010020260016801F010010491049B026870
:1014000042F020020260016801F020010491049A78
:10141000036843F004030360016801F004010491D0
:101420000499026842F0080202600122006800F09C
:10143000080004904FF4005104982846FFF732FF4B
:1014400000224FF440412846FFF72CFF00224FF4C2
:1014500070412046FFF726FF112201924FF4005001
:1014600000F043F8012201924FF4404000F03DF8B3
:1014700030200021009002916946174A17480192D6
:10148000FFF738FE40F6074000900022019200F07E
:1014900027F801214FF470420191009202210022AD
:1014A000039100F01DF8002200210A20FFF73BFF06
:1014B0000A20FFF757FF002200211720FFF733FF14
:1014C0001720FFF74FFF05B030BD00001810024095
:1014D00000100140000C0140000011100008014004
:1014E000029269462046FFF705BE00210090029156
:1014F0000222039269462846FFF7FCBD80B50A48E0
:10150000016841F0010101600022006800F0010063
:1015100000900021009B0B20FFF705FFBDE8024073
:101520000B20FFF71FBF00BF141002401FB50021A2
:1015300000910191029100204FF480713F4C404A8C
:10154000A16020730021217561604FF46020E0618B
:10155000042122602161204600F0FAF808B1FFF76B
:1015600095FD002007210090012202910192694619
:10157000204600F02DFA08B1FFF788FD0120022176
:1015800000F012F808B1FFF781FD0220032100F0FE
:101590000BF808B1FFF77AFD0320042100F004F8EE
:1015A00008B1FFF773FD1FBD009001912046694609
:1015B00000F00EBA30B585B004461021002201A813
:1015C000FFF71AFB23681E498B4234D11D481E4D7C
:1015D000026842F400720260016801F40071009137
:1015E000009A016841F0040101600321006800F0E5
:1015F000040000900F20009A0190029101A9134865
:10160000FFF778FD00206860A8604FF480718020AB
:10161000E86029614FF48060686100200C4AE8614D
:1016200020212A60A961284600F022FF08B1FFF7B7
:101630002DFD25626C6205B030BD00003C0200202B
:101640000024014018100240F80100200008014069
:101650000800024080B50848084B032240F6FF719D
:1016600003604260816000F0C1FB18B1BDE8014039
:10167000FFF70CBD01BD00BF80020020003000401C
:1016800000224FF4964180B52C488260C2604160D0
:101690004FF4806202610C21294B036000224161FA
:1016A0008261C26101F08EF818B1BDE80140FFF718
:1016B000EDBC01BD18B585B0044610210022684676
:1016C000FFF79AFA23681E498B4235D11D481E4CFC
:1016D000026842F480420260016801F48041049192
:1016E000049A016841F0080101600222006800F0DC
:1016F0000800049040200499009003210391019276
:1017000069462046FFF7F6FC8020009000220192F7
:10171000029269462046FFF7EDFC0C49086840F04C
:10172000E06040F004000860002200212520FFF75F
:10173000FAFD2520FFF716FE06B010BDB00100200F
:101740000038014018100240000C01400400014024
:10175000F8B5044600270026002C71D004F12405BA
:10176000686828B90021A96028702046FFF722FF89
:10177000204600F0F3F96968CA065DD401005BD128
:10178000696821F4885141F0020169606368E26987
:10179000217B1A43A36842EA4102B3F5807F14BF5C
:1017A000012B4FF48077237D012B0FD131B9A16933
:1017B000491E47EA413747F4006707E0696841F08E
:1017C00020016960A96841F00101A9602368596896
:1017D00021F469410F435F60DFF85C132768BB6841
:1017E0000B401343BB60A168B1F5807F18BF01298E
:1017F00002D12669761E36052368D96A21F4700164
:101800000E43DE622468DFF83413A3680B40934272
:1018100007D10022AA600122696862F301016960B0
:10182000F2BD686820F0020040F010006860A8680F
:1018300040F00100A86003E0686840F010006860B4
:101840000120F2BD10B500F124042178012901D155
:10185000022010BD0121217000F080F9010005D1A6
:10186000616821F4885141F001016160002121701B
:1018700010BD2DE9F04706460C463068DFF8D0125F
:10188000DFF8C852DFF8C0929246884218BF484538
:1018900003D1286810F4702F65D106F12407387839
:1018A000012808BF022061D001203870304600F0C6
:1018B0000CF90028804653D17968DFF8880201408E
:1018C00041F48071796001213068484516D12A6859
:1018D00012F4702F12D0786840F4801078602A6873
:1018E000500503D5786861F30D3078607868C104DD
:1018F00046BFB86820F00600002006E07A6822F4AF
:1019000080127A6040684205EBE7B8600021224609
:1019100039705346346A0FF29520A062316A0FF293
:10192000D520C8626FF00201346A0FF2D120206323
:10193000306801603068816841F48071816030688E
:1019400000F14C01306A00F0C6FD306800F010F87C
:1019500081680CBF41F4A00141F48011816004E072
:101960000020387001E04FF001084046BDE8F087E4
:10197000816801F46021B1F5602F704738B50546E4
:1019800005F124042078012801D1022032BD012074
:101990002070284600F0E2F8010016D12A6891680C
:1019A00021F480719160296A91F82120022A0CD1DA
:1019B000084600F0D4FD0100616806BF21F488519B
:1019C00041F0010141F0400161600021217032BD10
:1019D000F8B5002300930A4600F1240300211C7887
:1019E000012C01D10220F2BD01241C701F26576872
:1019F00014680568072F08D27F1E07EB8707D5F804
:101A000034C000F05CF86C6316E00D2F08D2FF1FA5
:101A100007EB8707D5F830C000F051F82C630BE0D6
:101A20000D3F07EB870CEF6A06FA0CF627EA06066D
:101A300004FA0CF43443EC620726176894680568CE
:101A40000A2F08D30A3F07EB4707D5F80CC000F070
:101A500036F8EC6006E007EB4707D5F810C000F059
:101A60002EF82C611468102C18BF112C23D100689B
:101A7000374DA8421AD13748046825021BD40468A0
:101A800044F4000404601068102814D12C4D324A2C
:101A90002C68B4FBF2F20A2042430092009800281E
:101AA0001EBF0098401E0090F8D104E00121586844
:101AB00040F020005860002018700846F2BDBE407B
:101AC0002CEA0606BC403443704738B50446002073
:101AD000009020688168CA072BD48168184A41F0B9
:101AE000010181601C481168B1FBF0F001E0009831
:101AF000401E009000980028F9D101F0E5F8054655
:101B000000F050F815D401F0DFF8401B0328F7D39C
:101B100000F048F8F4D404F12400416841F01001C9
:101B200041600021826842F0010282600170012060
:101B300032BD002032BD0000FDF7E1FFFE0E1FFFA9
:101B40000C000020FEF1FFFF0028014004240140AA
:101B5000002401400824014040420F0038B50446EB
:101B600020688168CA071BD58168490849008160DF
:101B700001F0AAF8054600F015F811D501F0A4F817
:101B8000401B0328F7D300F00DF8F4D5A16A41F00B
:101B90001001A162E06A40F00100E062012032BD64
:101BA000002032BD20688168C8077047416A8A6A90
:101BB00012F0500F1BD1886A40F4007088620A68E6
:101BC000906800F46020B0F5602F04BF087B002807
:101BD0000AD1886A20F480708862886AC20403D4BB
:101BE000886A40F001008862084601F073B80A6A0A
:101BF000116B0847406A01F06EB80000406A816AC4
:101C000041F040018162C16A41F00401C16201F00A
:101C100063B8000038B5054601F056F815F1010F1C
:101C2000044602D004490878451901F04DF8001B1C
:101C3000A842FAD331BD00BF000000202DE9F047D3
:101C40000446D4E90623D4E9020104F12A03121A56
:101C50001878634D16B200FB06FE587838B1A968B3
:101C600070434FF0640890FBF8F8884401E04FF0AF
:101C70000008B5F90000DFF86CA1361A98786421E5
:101C80007043484342F2107C5045B8BF504602DBD7
:101C90006045C8BF6046D045B8BFD04602DBE045CE
:101CA000C8BFE0462A8012B2002A00D515DCC6441F
:101CB0008644D645D8BFD64602DDE645A8BFE646EF
:101CC00049480078022818BF002806D0208D00FB64
:101CD0000EF0624690FBF2F22284228C2088A2EB66
:101CE000000ED8780FFA8EF600FB06F9187930B19D
:101CF000EF687043642290FBF2F2D21900E00022F8
:101D0000B5F902005F79301A47434F435745B8BFD2
:101D1000574602DB6745C8BF67465245B8BF5246C3
:101D200002DB6245C8BF62460FFA8EF00028A5F8B4
:101D300002E000D50FDC9144B944D145D8BFD1466B
:101D400002DDE145A8BFE146E08C09FB00F66046F4
:101D500096FBF0F06084B4F922E0A48C93F90C00B7
:101D60009E7900FB14EE0FFA8EF4D879664330B1F9
:101D70002F696043894690FBF9F9B94401E04FF0BF
:101D80000009B5F90470187AE71B474379435145B8
:101D9000B8BF514602DB6145C8BF6146D145B8BFF7
:101DA000D14602DBE145C8BFE1460FFA8EF00028BC
:101DB000A5F804E000D50CDC4E448E195645D8BF7A
:101DC000564602DD6645A8BF66460A2096FBF0F03F
:101DD0005881C5F81090C5F80880EA60BDE8F08722
:101DE0006C020020F0D8FFFF8000002038B504000E
:101DF00001D1012032BD20684CF6CC43036045F28E
:101E00005551016062684260A168816000F05CFF2A
:101E100005462068C16811F0030F0BD000F054FF95
:101E2000401B2828F5D32168C86810F0030FF0D0B4
:101E3000032032BD4AF6AA210160002032BD0068AD
:101E40004AF6AA2101600020704700002DE9F843FE
:101E5000040016D02078DFF86874C10713D57868BD
:101E600000F00C00042807D0786800F00C00082867
:101E700040D17968C8033DD53A68910303D56068BD
:101E8000002800F05B812078DFF84464810719D5D1
:101E9000786810F00C0F07D0786800F00C00082864
:101EA0005FD17868C1035CD43868810703D52069A5
:101EB000012840F043813968606921F0F80141EA66
:101EC000C00139602178080778D5A069DFF80414CB
:101ED000002800F09E8001220A6000F0F5FE054611
:101EE000796A88075BD400F0EFFE401B0228F7D91F
:101EF000032026E16068B0F5803F03D1386840F4E4
:101F0000803013E058B1B0F5A02F08D1386840F404
:101F1000802038603A6842F480323A6007E03968DD
:101F200021F480313960386820F48020386060689E
:101F300058B100F0C9FE054639688803A3D400F003
:101F4000C3FE401B6528F7D3D2E700F0BDFE05466F
:101F50003968880397D500F0B7FE401B6528F7D392
:101F6000C6E7206968B10121316000F0ADFE054689
:101F7000386881079FD400F0A7FE401B0228F7D9DC
:101F8000B6E70022326000F09FFE054639688807F8
:101F900098D500F099FE401B0228F7D9A8E7DFF892
:101FA00024231168C9084FF47A70B1FBF0F0009057
:101FB00000BF0098411E00280091F9D12078410708
:101FC0006ED5F9690025C80009D4F96941F080513E
:101FD000F9610125F86900F0805000900098DFF861
:101FE000F882D8F80000C10520D4D8F8000040F4E9
:101FF0008070C8F8000000F067FE8146D8F8001035
:10200000C80513D400F060FEA0EB09006528F5D3E5
:102010006EE7086000F058FE0546796A8807CDD55E
:1020200000F052FE401B0228F7D961E7E068012862
:1020300008D008B9386A09E00528386A06D140F0A6
:1020400004003862386A40F0010005E040084000B2
:102050003862386A20F00400386241F28938E0685A
:1020600060B100F031FE8146396A880713D400F070
:102070002BFEA0EB09004045F6D339E700F024FE23
:102080008146396A880706D500F01EFEA0EB0900DC
:102090004045F6D32CE71DB1F86920F08050F86177
:1020A000E06900284CD0796801F00C01082938D08B
:1020B00002282AD100F047F805463968880105D57D
:1020C00000F002FE401B0228F7D911E7206AB0F5A4
:1020D000803F05D17968A06821F40031014379601F
:1020E0007A68206A616A22F4741202430A437A60B1
:1020F000012000F029F804463868810120D400F05E
:10210000E3FD001B0228F7D9F2E600F01CF80446B4
:102110003868810114D500F0D7FD001B0228F7D9DB
:10212000E6E601280AD07868226A00F480319142FC
:1021300002BF00F47010616A884201D0012000E003
:102140000020BDE8F2830020306600F0BDBD2DE91F
:10215000F041040088465FD0604E306800F0070010
:10216000404509D23168C90848EAC1013160306888
:1021700000F0070040454FD12168514D880712D526
:10218000490703D5686840F4E0606860207801077B
:1021900003D5686840F4605068606968A06821F001
:1021A000F001014369602178C80726D560680128DD
:1021B00002D129688A0303E0022803D129688A0131
:1021C00003D429E02B68990726D56A68920840EA6B
:1021D0008200686000F078FD07466868616800F07A
:1021E0000C00B0EB810F08D000F06EFDC01B41F277
:1021F00089318842F1D3032032E0316801F00701D0
:1022000088450BD23068C00848EAC00030603168A9
:1022100001F00701414501D0012021E02178480764
:1022200005D56968E06821F4E061014369602178BF
:102230000A0706D56868216920F4605040EAC100A9
:10224000686000F00FF86A682549C2F303128B5CDE
:102250001C49D84008601D48006800F0C9F80020FB
:10226000BDE8F0811F4918480A6802F00C03082BEA
:1022700000D0704710B500BF1DA4C2F38343D20342
:10228000E35C08D5096858431DA3C1F34041595C7C
:10229000B0FBF1F010BD1448584310BD0948114B74
:1022A00000681A681149C2F3022206E005480D4B86
:1022B00000681A680D49C2F3C222895CC8407047A1
:1022C000001002400C00002000127A0008000020DC
:1022D0000000424280044242007000400020024060
:1022E000C42E00080410024000093D00F42E00082E
:1022F00002030405060708090A0B0C0D0E0F101047
:10230000010200002DE9FC410646354D3178C80731
:1023100050D5A9690024C80009D4A96941F08051A9
:10232000A9610124A86900F08050009000982D4F09
:102330003868C10511D4386840F48070386000F006
:10234000C3FC80463868C10507D400F0BDFCA0EB93
:1023500008006528F6D303203FE0E86910F44070D8
:102360001EBF716801F44071884218D01E49E869A7
:1023700001220A60002320F440700B60E861C0076E
:102380000DD500F0A1FC0746E969880707D400F0E5
:102390009BFCC01B41F289318842F5D3DBE7EA6937
:1023A000706822F440720243EA611CB1A86920F00F
:1023B0008050A8613178880705D52968B06821F474
:1023C0004041014329603178C80605D52968F06885
:1023D00021F48001014329600020BDE8F68100005E
:1023E0000410024000700040400442427047000068
:1023F00038B50D4D0D4A297804464FF47A731068AC
:10240000B3FBF1F1B0FBF1F0FEF7B7FF50B9102CC0
:1024100008D2002221464FF0FF30FEF784FFAC6067
:10242000002032BD012032BD000000200C00002041
:102430000D4881B0026842F001020260016801F0BB
:1024400001010091009A4168084A41F080514160C1
:102450000221406800F0805000900098106861F3FD
:102460001A60106001B0704718100240040001406B
:1024700030B508B9012030BD0268DFF800138A18B2
:10248000142400F13803B2FBF4F4A400DFF8F012D6
:102490009C605960022280F8212001680C68416824
:1024A000826805686FF30D140C43C1681443026918
:1024B0000C434169144382690C43C16914430C43C2
:1024C0002C6000221A600123FFE780F8213080F899
:1024D0002020002030BDF8B500F034F801D10220F2
:1024E000F2BD00F035F822D1022004F12C0684F868
:1024F00021000027F76027683868400840003860EE
:10250000204600F04DF92168306820B10A6842F099
:102510000E020A6008E0086820F0040008602068E5
:10252000016841F00A01016000F006F802E084F859
:10253000205002252846F2BD2168086840F00100BD
:10254000086070470446002594F820000128704771
:10255000012084F8200094F82160012E704790F843
:102560002130022B00F1380206D004211160002234
:1025700080F820200120704701680B6823F00E03CB
:102580000B600368196849084900196001239168C4
:1025900052688B4053600021012380F8213080F87D
:1025A00020100020704738B590F821200024022A1E
:1025B00000F1340103D00420486001243EE00268A9
:1025C000136823F00E03136003681A685208520060
:1025D0001A60DFF8B03102689A4208BF012322D0A6
:1025E000DFF8A4319A4208BF10231CD0DFF89C31D9
:1025F0009A4208BF4FF4807315D0DFF894319A42A5
:1026000008BF4FF480530ED0DFF888319A4208BFDC
:102610004FF4803307D0DFF880319A420CBF4FF47B
:1026200080134FF08073DFF874211360012580F868
:10263000215080F82040096801B18847204632BD0A
:102640002DE9F84F00F1280204265169534D0F6817
:102650000168DFF844A10B689469DFF838B1DFF84E
:1026600030C1DFF828E1DFF82081DFF81891A640BB
:1026700037422DD05E072BD50B689C0603D40B6820
:1026800023F004030B600168494508BF042118D0FA
:10269000414508BF402114D0714508BF4FF4806107
:1026A0000FD0614508BF4FF480410AD0594508BF9B
:1026B0004FF4802105D051450CBF4FF480014FF0FD
:1026C000806129605168002956D0BDE8F44F084761
:1026D0000226A640374232D09E0730D50B689C06B2
:1026E00006D40B6823F00A030B60012180F8211047
:1026F0000168494508BF022118D0414508BF202183
:1027000014D0714508BF4FF400710FD0614508BF68
:102710004FF400510AD0594508BF4FF4003105D09D
:1027200051450CBF4FF400114FF00071296000219A
:1027300080F820101168F9B1BDE8F44F084708256A
:1027400005FA04F4274217D01B0715D50C6824F0AE
:102750000E040C600123916954698B406360012170
:102760001161012380F82130002180F82010916848
:1027700011B1BDE8F44F0847BDE8F18FF8FFFDBF88
:1027800000000240080002401C00024030000240ED
:1027900044000240580002406C0002400400024025
:1027A00070B5046CC66B0125A54075600468636054
:1027B0004068102802D1A260E16070BDA160E260B3
:1027C00070BD000038B5040001D1012032BD04F114
:1027D0004005687808B900F009F800F00CF800F03E
:1027E00022F8FFE7486100F010F832BD002129709F
:1027F0002046FEF75FBF242068702168C86820F477
:102800000050C860204600F01DBA2168C86840F436
:102810000050C8606A60202169702020A8700021E3
:102820006163002070472168086920F490400861C6
:1028300000222168486920F02A007047036803F1EC
:102840000C0252E8002F0C33704743E800210029A6
:102850007047226802F1140151E8001F143221F080
:10286000400142E800100028F3D1E06B7047F8B552
:1028700004462268136811460846CD68466913F07D
:102880000F0F03F0200105F0200007D1002918BF29
:1028900000285BD02046BDE8F24073E1F70702D480
:1028A00015F4907F52D0DA0705D5ED0503D5626C9B
:1028B00042F0010262645A0705D5F50703D5626C40
:1028C00042F0020262649A0705D5F50703D5626CEF
:1028D00042F0040262641A0706D508B9F30703D56B
:1028E000626C42F008026264626C002A2DD00029FA
:1028F0001EBF0028204600F045F920684069626C40
:10290000110701D440061BD5204600F004F92068C9
:10291000416948060FD5FFF79CFF60B10FF25521C2
:102920004163E06BFFF73FFE00280ED0E06B416B88
:10293000BDE8F44008472046BDE8F24000F0CDB9BC
:10294000204600F0CAF900206064F1BD206B012828
:1029500004F1410140F08880D80600D5EE0640F130
:102960008380002300931268009223685A680092C3
:10297000009B2068426950063CD5E26B10684068B5
:1029800080B20028E1D0A38D9842DEDAE08590691C
:10299000202827D0226802F10C0555E8002F206876
:1029A00000F10C0322F4807200F09DF8F2D100F0E7
:1029B0009EF8520800F11403520000F094F8F6D18A
:1029C00000F095F800F1140322F0400200F08BF8BB
:1029D000F6D1202048700021216300F08FF8E06BD1
:1029E000FFF7BDFD02206063A18DE08D091A89B259
:1029F000204635E0A38DE28DE08D9B1A00281CBF98
:102A000098B200286ED02246156805F10C0454E8EF
:102A1000004F0C3524F4907445E800400028F3D1B1
:102A2000156805F1140454E8004F64081435640077
:102A300045E800400028F3D12020487000211163B0
:102A4000146804F10C0151E8001F0C3421F010014E
:102A500044E800100028F3D10220506399B21046D8
:102A6000BDE8F44000F03AB918062BD52A0629D55E
:102A70000878212836D1A068B0F5805F04BF2069AE
:102A8000002809D1226A21681088C0F30800486034
:102A9000206A811C216205E0206A421C22622168B2
:102AA00000784860E08C401EE08480B2D0B9216894
:102AB000C86820F08000C8602168C86840F0400005
:102AC000C860F1BD58060DD56A060BD52068C268EE
:102AD00022F04002C260204620220A70BDE8F24087
:102AE00000F0FDB8F1BD43E80020002870472268DF
:102AF00002F1140555E8002F20687047226802F1A2
:102B00000C0151E8001F0C3221F0100142E80010C6
:102B10000028F3D17047036803F10C0252E8002F3C
:102B20000C3322F4907243E800210029F3D10368AA
:102B300003F1140252E8002F52081433520043E804
:102B400000210029F3D1016B01290BD1036803F1A6
:102B50000C0252E8002F0C3322F0100243E800214F
:102B60000029F3D1202280F8422000210163704720
:102B700000000000406A0022C2850021C18400F0EC
:102B8000ACB800001CB590F84210222958D18168D9
:102B9000826AB1F5805F0AD1016969B90368596831
:102BA000C1F308011180826A911C81620FE0002943
:102BB00004BF0169002902D10368596803E0016874
:102BC000496801F07F011170816A4A1C8262C18DDF
:102BD000491EC18589B289BB0268D16821F02001F4
:102BE000D16000230168CA6822F48072CA6002685A
:102BF0005169490849005161202280F8422043630D
:102C0000016B012918D100220263FFF717FE22F0A1
:102C10001002FFF71AFEF8D101680A68D30607D53B
:102C2000002200920B680093046862680092009B87
:102C3000818D00F053F801E000F052F8002016BD3D
:102C4000022016BD10B5044622681169E06821F41F
:102C5000405101431161D3681948A16803402069BC
:102C60000B43616903430B43D36016495369A06961
:102C700023F4407303438A42536102D1FFF716FBEA
:102C800001E0FFF70BFB6268192148439200B0FB9B
:102C9000F2F26421B2FBF1F16FF0630000FB01225C
:102CA000120132326423B2FBF3F000F0F00202EBC7
:102CB0000112216800F00F008018886010BD00002C
:102CC000F3E9FFFF0038014001484068704700BF4A
:102CD000000000207047704770477047704770478A
:102CE00070470000FEE7FEE7FEE7FEE7FEE77047FD
:102CF0007047704700F066B815480188491C01808C
:102D00001020FEF7D3BA1348FFF79ABC1248018887
:102D1000491C01802020FEF7C9BA10B50F4C20785D
:102D20000A2809D10E490F4800F026F80E490F482D
:102D300000F022F8002121702078401C2070BDE8AE
:102D400010400B48FDF73CBB0A48FFF790BD000060
:102D50008E000020F80100208C000020810000205F
:102D600090000020100000202001002048000020DA
:102D700068010020B0010020F0B509684E6A078A9A
:102D8000B6B2BE4208BF002710D0B7420B6806DAC1
:102D9000DA0606D5C96A7F427F1AF71906E0DA0615
:102DA00001D5F71B02E0C96A8919CF1BD0E902459A
:102DB0003AB2D317A2186B41C0E9022306820780FA
:102DC000F0BD0000024A5168107841185160704708
:102DD0000000002030B4002412E050F8043BDA0771
:102DE00044BF4B445B1E091F042943F8044BFAD22D
:102DF0001A468D0744BF1C80921CCB0748BF147035
:102E000050F8041B0029E8D130BC704710B5034AC4
:102E10007A440832024C7C44A41D03E01C000000EC
:102E20003C00000004E01168101D11448847024670
:102E3000A242F8D110BD00009DFFFFFF7C02000000
:102E4000100000200000000087DAFFFF10000000E3
:102E500094000000000000200000000000F00DF8C9
:102E6000002801D0FFF7D2FFAFF300800020AFF3BE
:102E70000080FDF7CBFE00F002F80120704700F063
:102E800001B800000746384600F002F8FBE70000F2
:102E900080B5AFF30080024A11001820ABBEFBE7FB
:102EA000260002000548014603B4684680F30988FD
:102EB000AFF30080AFF30080FFF7D0FFA5EDF5FE84
:102EC0007047000000000000000000000102030441
:102ED000060708090148804701480047C12E00083D
:102EE000A52E0008010000000000000010000000F6
:102EF0000024F4000000000001020304FFF7FEBFFD
:102F0000FFF7FEBFFFF7FEBFFFF7FEBFFFF7FEBFF5
:102F1000FFF7FEBFFFF7FEBFFFF7FEBFFFF7FEBFE5
:102F2000FFF7FEBFFFF7FEBFFFF7FEBFFFF7FEBFD5
:102F3000FFF7FEBFFFF7FEBFFFF7FEBFFFF7FEBFC5
:102F4000FFF7FEBFFFF7FEBFFFF7FEBFFFF7FEBFB5
:102F5000FFF7FEBFFFF7FEBFFFF7FEBFFFF7FEBFA5
:102F6000FFF7FEBFFFF7FEBFFFF7FEBFFFF7FEBF95
:102F7000FFF7FEBFFFF7FEBFFFF7FEBFFFF7FEBF85
:102F8000FFF7FEBFFFF7FEBFFFF7FEBFFFF7FEBF75
:042F9000FFF7FEBF8A
:0400000508002EA51C
:00000001FF
