:020000040800F2
:10000000501800205D3D0008893A00088B3A00082E
:100010008D3A00088F3A0008913A0008000000006D
:10002000000000000000000000000000933A0008FB
:10003000953A000800000000973A0008993A000835
:10004000813D0008853D0008893D00088D3D000880
:10005000913D0008953D0008993D00089D3D000830
:10006000A13D0008A53D0008A13A0008B33A0008E8
:10007000A93D0008AD3D0008B13D0008B53D0008B0
:10008000B93D0008BD3D0008C13D0008C53D000860
:10009000C93D0008CD3D0008D13D0008BD3A00082B
:1000A000D53D0008D93D0008DD3D0008E13D0008D0
:1000B000E53D0008E93D0008CF3A0008ED3D0008A5
:1000C000F13D0008F53D0008F93D0008FD3D000840
:1000D000013E00087F3B0008053E0008093E00087D
:1000E0000D3E0008113E0008153E000810B5040042
:1000F000002C01D101202FE094F83D00002805D10B
:10010000002084F83C00200000F067FE022084F804
:100110003D00211D206800F09AFB012084F8460074
:10012000012084F83E00012084F83F00012084F87B
:100130004000012084F84100012084F842000120A1
:1001400084F84300012084F84400012084F845002D
:10015000012084F83D00002010BD010091F83D0011
:10016000012801D0012030E0022081F83D0008681C
:10017000C36853F001030868C3600B68DFF88401AB
:1001800083420DD00868B0F1804F09D00B68DFF8CA
:100190007801834204D00B68DFF8700183420DD1EF
:1001A0000868806810F007000200062A0CD0086872
:1001B000036853F001030868036005E008680368FA
:1001C00053F00103086803600020704710B5040075
:1001D000002C01D101202FE094F83D00002805D12A
:1001E000002084F83C00200000F0E6FD022084F8A6
:1001F0003D00211D206800F02AFB012084F8460004
:10020000012084F83E00012084F83F00012084F89A
:100210004000012084F84100012084F842000120C0
:1002200084F84300012084F84400012084F845004C
:10023000012084F83D00002010BD70B505000C00C1
:10024000002C02D195F83E000BE0042C02D195F869
:100250003F0006E0082C02D195F8400001E095F837
:100260004100012801D001204BE0002C04D10220E4
:1002700085F83E00C0B211E0042C04D1022085F8BC
:100280003F00C0B20AE0082C04D1022085F84000EB
:10029000C0B203E0022085F84100C0B20122210073
:1002A000286800F0F7FB17482968814205D12968C2
:1002B0004A6C52F4004229684A64296881420BD092
:1002C0002868B0F1804F07D029680F48814203D0D9
:1002D00029680E4881420DD12868806810F0070017
:1002E0000600062E0CD02868016851F0010128682C
:1002F000016005E02868016851F00101286801608B
:10030000002070BD002C01400004004000080040A7
:1003100038B504000D00002C01D101205CE094F8F8
:100320003D00002805D1002084F83C00200000F0AA
:10033000F4FC022084F83D0020688168DFF8980111
:10034000014020688160211D206800F080FA20684B
:100350008168206882692068036A28680143DFF8A1
:100360007C010240A8680243A86952EA0022DFF833
:1003700070010240DFF86C010240E8680243E8695E
:1003800052EA0022286952EA0012286A52EA003230
:1003900033F0220368680343686953EA0013206856
:1003A00081602068826120680362012084F8460031
:1003B000012084F83E00C0B2012084F83F00C0B2A2
:1003C000012084F84200C0B2012084F84300C0B28A
:1003D000012084F83D00002032BD00002DE9F843E3
:1003E00005000C0095F83E6095F83F7095F8428046
:1003F00095F84390002C12D13000C0B2012803D1EF
:100400004046C0B2012801D0012062E0022085F8F8
:100410003E00C0B2022085F84200C0B236E0042C93
:1004200012D13800C0B2012803D14846C0B2012819
:1004300001D001204DE0022085F83F00C0B202202B
:1004400085F84300C0B221E03000C0B201280BD1D2
:100450003800C0B2012807D14046C0B2012803D1FC
:100460004846C0B2012801D0012032E0022085F8C0
:100470003E00C0B2022085F83F00C0B2022085F8DD
:100480004200C0B2022085F84300C0B2200000281C
:1004900002D0042806D00BE001220021286800F0D9
:1004A000F9FA0FE001220421286800F0F3FA09E0CC
:1004B00001220021286800F0EDFA012204212868B9
:1004C00000F0E8FA2868016851F00101286801602D
:1004D0000020BDE8F2830000F8BFFFFFFCFCFFFF37
:1004E000F3F3FFFF0F0FFFFF10B504002068006952
:1004F00080071AD52068C068800716D57FF00201F2
:1005000020680161012020772068806910F0030FC6
:1005100003D0200000F0D2FC05E0200000F0CFFC6A
:10052000200000F0CDFC0020207720680069400703
:100530001AD52068C068400716D57FF004012068EE
:100540000161022020772068806910F4407F03D089
:10055000200000F0B3FC05E0200000F0B0FC20001B
:1005600000F0AEFC002020772068006900071AD553
:100570002068C068000716D57FF008012068016177
:10058000042020772068C06910F0030F03D02000FA
:1005900000F094FC05E0200000F091FC200000F049
:1005A0008FFC0020207720680069C0061AD52068DB
:1005B000C068C00616D57FF01001206801610820D0
:1005C00020772068C06910F4407F03D0200000F03D
:1005D00075FC05E0200000F072FC200000F070FCCB
:1005E0000020207720680069C0070AD52068C0680D
:1005F000C00706D57FF0010120680161200000F0EE
:1006000060FC2068006900060AD52068C068000602
:1006100006D57FF0800120680161200000F052FCC7
:100620002068006940060AD52068C068400606D5E3
:100630007FF0400120680161200000F044FC206848
:10064000006980060AD52068C068800606D57FF05C
:10065000200120680161200000F036FC10BDF8B5D3
:1006600004000D001600002794F83C00012801D179
:10067000022071E0012084F83C003000002806D000
:1006800004281BD0082831D00C2846D05DE0290072
:10069000206800F010F92068806950F00800216897
:1006A00088612068816931F00401206881612068D7
:1006B0008169286901432068816148E02900206838
:1006C00000F026F92068816951F400612068816199
:1006D0002068816931F480612068816120688069C7
:1006E000296950EA01202168886130E029002068EA
:1006F00000F03FF92068C16951F008012068C1612C
:100700002068C16931F004012068C1612068C169B5
:10071000286901432068C16119E02900206800F0C0
:1007200058F92068C06950F400602168C8612068E9
:10073000C16931F480612068C1612068C06929699C
:1007400050EA01202168C86101E001200700002073
:1007500084F83C003800C0B2F2BDF8B504000D00CA
:10076000002694F83C00012801D102206EE001200F
:1007700084F83C00022084F83D002068876837F048
:10078000770737F47F4720688760286800284ED0B5
:1007900010284CD020284AD0302848D040283CD0BF
:1007A000502826D060282ED0702807D0B0F5805F62
:1007B00003D0B0F5005F0FD03EE03FE0EB686A6821
:1007C000A968206800F05BF92068806850F0770025
:1007D00007002068876031E0EB686A68A9682068D4
:1007E00000F04DF92068816851F4804120688160F3
:1007F00024E0EA686968206800F014F95021206854
:1008000000F035F91AE0EA686968206800F01CF920
:100810006021206800F02BF910E0EA686968206820
:1008200000F000F94021206800F021F906E0296875
:10083000206800F01CF901E001200600012084F886
:100840003D00002084F83C003000C0B2F2BD10B47E
:100850000468714B984208D0B0F1804F05D06F4AC0
:10086000904202D06E4A904204D134F070042200CB
:100870004C681443984208D0B0F1804F05D0674AC5
:10088000904202D0664A904204D134F4407422006F
:10089000CC68144334F080044A69144304608A68C5
:1008A000C2620A688262984201D10A690263012227
:1008B000426110BC704770B4056A026A5208520067
:1008C00002624368846934F07004A408A4000A68D2
:1008D000144335F002058A6815434F4EB04205D1E6
:1008E00035F00805CA68154335F00405B04208D153
:1008F00033F4807333F400734A6913431A008B692D
:100900001343436084614A684263056270BC704768
:1009100070B4056A026A32F01002026242688369AA
:1009200033F4E04333F440730C6853EA042335F0A6
:1009300020058C6855EA0415374EB04206D135F0D3
:100940008005CC6855EA041535F04005B04209D160
:1009500032F4806232F400624C6952EA84028C699B
:1009600052EA8402426083614C688463056270BC11
:10097000704770B4056A026A32F48072026243689A
:10098000C46934F07004A408A4000A68144335F460
:1009900000758A6855EA02251F4EB04206D135F42B
:1009A0000065CA6855EA022535F48065B04209D170
:1009B00033F4805333F400534A6953EA02138A69CB
:1009C00053EA02134360C4614A68C263056270BCA3
:1009D000704730B4046A026A32F48052026242689C
:1009E000C36933F4E04333F440730D6853EA0523DD
:1009F00034F400548D6854EA0534074DA84204D1FC
:100A000032F480424D6952EA85124260C3614D68FA
:100A10000564046230BC7047002C014000040040B3
:100A20000008004010B4036A046A640864000462A9
:100A3000846934F0F00454EA021433F00A030B43DF
:100A40008461036210BC704710B4036A046A34F016
:100A500010040462846934F4704454EA023433F0BC
:100A6000A00353EA01138461036210BC70478268DB
:100A700032F070020A4352F007028260704710B4ED
:100A8000846834F47F440C43144354EA03248460A0
:100A900010BC704730B4012411F01F039C40036A5E
:100AA000A3430362056A11F01F0312FA03F31D4307
:100AB000056230BC70470EE00268436802440830AB
:100AC0005FEAC37C44BF4B445B1E52F804CB43F83F
:100AD00004CB091FF9D150F8041B0029ECD1704751
:100AE00018B58BB02421002202A800F0EFF90821EC
:100AF0000022684600F0EAF9DFF89043DFF890033F
:100B00002060472060600020A0604FF6FF70E0602A
:100B100000202061002060610020A061032002907D
:100B20000A200390012004900020059000200690E8
:100B30000A200790012008900020099000200A90C8
:100B400002A92000FFF7E4FB002801D000F04EFDD1
:100B500000200090002001906946200000F048FD30
:100B6000002801D000F042FD0CB010BD18B589B0CE
:100B700008210022684600F0A9F91C21002202A8E1
:100B800000F0A4F9DFF80C435FF080402060032000
:100B900060600020A0604FF47A70E0600020206167
:100BA0000020A0612000FFF711FB002801D000F019
:100BB0001DFD00200090002001906946200000F0FB
:100BC00017FD002801D000F011FD602002900020E8
:100BD00003900020049000200690002202A920002B
:100BE000FFF73DFD002801D000F000FD206881697D
:100BF00031F0080120688161042202A92000FFF77A
:100C00002EFD002801D000F0F1FC2068816931F44C
:100C1000006120688161200000F0F8F80AB010BD82
:100C200018B58BB02421002202A800F04FF908214A
:100C30000022684600F04AF9974C98482060472007
:100C400060600020A0604FF6FF70E060002020612F
:100C50000020A06101200290002003900120049058
:100C600000200590012006900020079001200890A8
:100C70000020099001200A9002A92000FFF748FBFC
:100C8000002801D000F0B2FC00200090002001906C
:100C90006946200000F0ACFC002801D000F0A6FC62
:100CA0000CB010BD10B586B01021002202A800F0D3
:100CB0000DF908210022684600F008F9784C7948BF
:100CC000206040F2CF2060600020A0604FF47A7076
:100CD000E060002020618020A0612000FFF706FA7C
:100CE000002801D000F082FC4FF48050029002A94D
:100CF0002000FFF732FD002801D000F077FC002033
:100D00000090002001906946200000F071FC00284E
:100D100001D000F06BFC06B010BD18B585B0040022
:100D200010210022684600F0D1F82168584881421D
:100D30001ED15D48016851F400610160016811F441
:100D4000006104910499016851F004010160006898
:100D500010F00400049004984FF4407000900020BC
:100D60000190002002906946504800F081FC21E08B
:100D700021684A4881421DD14D49086850F002005F
:100D80000860086810F0020004900498464908685A
:100D900050F004000860086810F004000490049803
:100DA000C0200090002001900020029069463F483A
:100DB00000F05EFC06B010BD81B00168B1F1804F5B
:100DC00009D13B4A116851F001011160116811F01D
:100DD00001010091009901B070471CB50400216821
:100DE0003048814211D13249086850F0040008604F
:100DF000086810F0040000900098002200211E20D6
:100E000000F013FE1E2000F025FE13BD18B585B0BE
:100E1000040010210022684600F058F82068B0F164
:100E2000804F30D12048016851F004010160016811
:100E300011F0040104910499016851F00801016066
:100E4000006810F00800049004984FF400400090EF
:100E500002200190022003906946144800F008FC2B
:100E6000082000900220019002200390694611485A
:100E700000F0FEFB1048016831F4407151F0E06170
:100E800051F48071016006B010BD000050120020C6
:100E9000002C014098120020E012002000040040C5
:100EA00028130020000800401810024000080140EC
:100EB0001C100240000C01400400014070477047C4
:100EC00070477047704770477047010262F30F2206
:100ED00062F31F42401810F0030308D0C91A1FD351
:100EE000DB0748BF00F8012D28BF20F8022D1300B2
:100EF00030B414461546103928BF20E93C00FAD812
:100F0000490728BF20E90C0048BF40F8042D89009C
:100F100028BF20F8022D48BF00F8012D30BC7047D3
:100F2000C91818BF00F8012DCB0728BF00F8012D04
:100F3000704700002DE9FE4F00F0AAFD00F004FA12
:100F400000F0B8FD00F04EFE00F062FE00F002FF7F
:100F5000FFF7C6FDFFF70AFEFFF762FEFFF7A2FEEE
:100F600000F00CFFDFF864750121380000F0D0FAC2
:100F7000DFF85C450221200000F0CAFADFF8545582
:100F80000121280000F083FC002804D00121DFF8B3
:100F90004805017003E00221DFF83C0501700122E1
:100FA0004FF48041280000F07DFC01224FF4004105
:100FB000280000F077FCDFF824A5504600F0E9FF98
:100FC000504601F0B9F8DFF81865042231005046A8
:100FD00000F0FDFFDFF80C05FFF7BFF83C21DFF85C
:100FE0000805FFF7FBF93C21DFF80005FFF7F6F9EC
:100FF000012001F039FA3088ADF806007088ADF8AC
:1010000002003088ADF804007088ADF80000DFF809
:10101000E09499F800B00021DFF8D80401600021C5
:10102000DFF8D4040160DFF8D48400214046FFF7E4
:1010300004F904214046FFF700F9594699F80000E9
:10104000C9B28142F9D099F80000012805D14FF4C6
:101050000051DFF8AC0400F032FCDFF8A80401F026
:1010600045FA99F800008346BDF80610308841180B
:10107000491039853088ADF80600BDF80410B088F5
:10108000411849102185B088ADF80400DFF8480404
:101090000078002804D0022800F0BA800FD34AE17B
:1010A000380001F02BFA200001F028FA0121380065
:1010B00000F094F90221200000F090F93BE14FF498
:1010C0008061280000F0E3FB01283AD102212800CA
:1010D00000F0DDFB012818D1DFF82CC4BCF80000BB
:1010E00000282AD0BCF8001041F28830814224DA6E
:1010F000D7E90601BCF80020002380185941C7E950
:1011000006010020ACF8000017E0DFF8FCC3BCF8D3
:101110000000002811D0BCF8001041F28830814254
:101120000BDAD7E90601BCF800200023801A9941A8
:10113000C7E906010020ACF80000380001F0DEF934
:101140000DE000200021C7E90601D7E90601C7E943
:101150000201002038870021DFF8AC030180012163
:10116000380000F03BF94FF40061280000F08FFBDD
:1011700001283BD10421280000F089FB012818D167
:10118000DFF888C3BCF8000000282BD0BCF80010A2
:1011900041F28830814225DAD4E90601BCF800200A
:1011A000002380185941C4E906010020ACF8000072
:1011B00018E0DFF858C3BCF80000002812D0BCF8D3
:1011C000001041F2883081420CDAD4E90623BCF8E1
:1011D00000000021101A73EB0101C4E90601002090
:1011E000ACF80000200001F089F90CE0002000219B
:1011F000C4E906010020208700200021C4E9020183
:101200000021C24801800221200000F0E7F892E0AE
:101210004FF48061280000F03AFB01283BD1022105
:10122000280000F034FB012813D1BA8DBDF802105C
:10123000708841184A43521390467088ADF80200F6
:10124000B88D404502DAB7F92C0000E04046B8847A
:101250001DE0B98DBDF802207088821851434913F2
:101260005FF0FF30414388467088ADF80200B98DC9
:101270005FF0FF3000FB08F0814206DAB7F92C007E
:101280005FF0FF3101FB00F100E04146B984380016
:1012900001F034F901E0002038870121380000F026
:1012A0009DF84FF40061280000F0F1FA01283BD1CD
:1012B0000421280000F0EBFA012813D1A28DBDF81B
:1012C0000010F08841184A4352139046F088ADF858
:1012D0000000A08D404502DAB4F92C0000E0404641
:1012E000A0841DE0A18DBDF80020F0888218514334
:1012F00049135FF0FF3041438846F088ADF80000A5
:10130000A18D5FF0FF3000FB08F0814206DAB4F9EE
:101310002C005FF0FF3101FB00F100E04146A184A9
:10132000200001F0EBF801E00020388702212000C6
:1013300000F054F8FFE7504600F0FEFE04223100B2
:10134000504600F044FE78E600B593B02821002214
:1013500009A8FFF7BBFD142100226846FFF7B6FD80
:101360001021002205A8FFF7B1FD092009905FF4C4
:1013700080300A9000210B9101210D9101210F91E4
:101380000221109111905FF4E010129009A801F071
:1013900065FA002801D000F029F90F200090022002
:1013A0000190002002904FF4806003900020049090
:1013B0000221684601F048FC002801D000F016F92F
:1013C000022005904FF44040079005A801F060FD11
:1013D000002801D000F00AF913B000BD38B50400B0
:1013E0000D002800C0B2012837D1B4F93800052813
:1013F0000ADB01224FF48051364800F053FAB4F969
:1014000038103C48016015E0B4F9380010F1040FC1
:101410000DDA00224FF480512E4800F043FAB4F95F
:1014200038105FF0FF3041433248016002E0002194
:1014300030480160206A01F0C1FD052806DA00226B
:101440004FF480412E4800F02DFA3DE001224FF488
:1014500080412B4800F026FA36E0B4F93800052820
:101460000ADB01224FF400511A4800F01BFAB4F9CC
:1014700038102148016015E0B4F9380010F1040F6C
:101480000DDA00224FF40051124800F00BFAB4F9C3
:1014900038105FF0FF3041431748016002E000213F
:1014A00015480160206A01F089FD052806DA00224E
:1014B0004FF40041124800F0F5F905E001224FF425
:1014C00000410F4800F0EEF931BD0000100000208F
:1014D00030090020000C014048140020FC130020BB
:1014E000381400202813002050120020E0120020A1
:1014F00049140020340000403800004098120020B9
:10150000001001402C140020441400204614002038
:10151000002280F83A2000220023C0E902230022A2
:101520000023C0E90623002202805822828500227F
:1015300082844FF4FA624285002202850022C2842E
:1015400000220287002202820A00D2B2012A01D1BF
:10155000002200E0002280F830200A00D2B2012AE6
:1015600001D1002200E0002280F82F200A00D2B230
:10157000012A01D1C82200E0C82280F82E200A00EA
:10158000D2B2012A01D1282200E0282280F833209B
:101590000A00D2B2012A01D1462200E0462280F898
:1015A00032200A00D2B2012A01D1C82200E0C822AA
:1015B00080F831200A00D2B2012A01D1002200E0D5
:1015C0000A2280F836200A00D2B2012A01D1012273
:1015D00000E0642280F835200A00D2B2012A01D14D
:1015E000012200E0322280F83420704772B6FEE714
:1015F00030B4020092F83C00012801D102202DE015
:10160000012082F83C00022082F83D001068446806
:101610001068836834F070040868044310684460FC
:101620001568104885420BD01068B0F1804F07D084
:1016300015680D48854203D015680C48854206D1CF
:1016400033F0800318004B68034310688360012067
:1016500082F83D00002082F83C00002030BC70473A
:1016600000000000002C0140000400400008004081
:101670002DE9F84703005FF000085FF0000E0868EE
:1016800030FA08F0002800F00081012010FA08F07C
:101690000700086838400400BC4240F0F380486806
:1016A000002831D0012820D0022825D003283CD0A2
:1016B00011281DD0122823D0DFF83CC2604523D06A
:1016C000DFF838C260451FD0DFF834C260451BD058
:1016D000DFF830C2604517D0DFF82CC2604513D068
:1016E000DFF828C260450FD022E0C86886461FE0B8
:1016F000C868001D86461BE0C8680830864617E0AB
:10170000C8680C30864613E08868002802D104209F
:10171000864609E08868012803D1082086461F61B3
:1017200002E0082086465F6102E000208646FFE76F
:10173000B4F5807F01D21D0000E01D1DB4F5807F4F
:1017400002D25FEA880602E0B8F10806B6005FF050
:101750000F09D5F800C019FA06F03CEA000C1EFA91
:1017600006F050EA0C0CC5F800C04868C00040F113
:1017700089806748D0F800C05CF0010CC0F800C058
:10178000006810F0010000900098DFF888A1404642
:1017900080085AF820C018F00300C0B2800019FA7F
:1017A00000F93CEA090C5C48834202D15FF0000971
:1017B00013E05A48834202D15FF001090DE0584816
:1017C000834202D15FF0020907E05648834202D10A
:1017D0005FF0030901E05FF0040918F00300C0B2F4
:1017E000800019FA00F9624659EA02024046800870
:1017F0004AF820204868C00207D5DFF82CC1DCF881
:1018000000002043CCF8000006E0DFF81CC1DCF843
:101810000000A043CCF800004868800207D5DFF83C
:101820000CC1DCF800002043CCF8000006E0DFF833
:10183000FCC0DCF80000A043CCF80000486880033E
:1018400007D5DFF8ECC0DCF800002043CCF800003E
:1018500006E0DFF8DCC0DCF80000A043CCF80000B4
:101860004868C00307D5DFF8CCC0DCF8000020438F
:10187000CCF8000006E0DFF8BCC0DCF80000A043B4
:10188000CCF8000018F10108F9E6BDE8F187020084
:101890009368080080B2034201D0012000E00020DC
:1018A000C0B270471300DBB2002B03D00B009BB219
:1018B000036103E00B009BB21B040361704710B48B
:1018C000C4680A0092B222400B009BB2A34353EAC1
:1018D0000243036110BC704710B50400164802684B
:1018E000210089B20A4206D0210089B2016020009D
:1018F00080B201F067FB10BD000011100000121053
:1019000000002110000022100000311000003210F1
:10191000181002400800014000080140000C01407E
:101920000010014000140140080401400C04014073
:1019300004040140000401401404014010B410F0FC
:1019400007024B4B1C684FF6FF010C4054EA02247F
:1019500048490C431C6010BC704745480068C0F300
:1019600002207047010049B2002909D4012210F079
:101970001F018A40404B010049B2490943F8212028
:10198000704710B4020052B2002A05D40C013B4B40
:10199000020052B29C5408E00A01394C03005BB2C9
:1019A00013F00F03234403F8042C10BC704770B4E9
:1019B000030013F00704D4F10700052801D3042025
:1019C00001E0D4F10700251D072D01D2002600E01B
:1019D000E61E012515FA00F0401E0140B14015FA3F
:1019E00006F6761E32401143080070BC704710B5F1
:1019F0000400601EB0F1807F01D301200EE0611E63
:101A0000204801600F215FF0FF30FFF7BAFF00218F
:101A10001D48016007211D480160002010BD10B560
:101A200004002000FFF78AFF10BD2DE9F041804639
:101A30000C0015000026FFF790FF07002A00210088
:101A40003800FFF7B4FF0100404640B2FFF799FFAE
:101A5000BDE8F08110B50400200040B2FFF782FF1E
:101A600010BD10B504002000FFF7C1FF10BD00003D
:101A70000CED00E00000FA0500E100E000E400E009
:101A800018ED00E014E000E018E000E010E000E0F5
:101A900080B50749086850F0100008600320FFF780
:101AA000BEFF0F2001F090FA01F0B4FA002002BD51
:101AB0000020024030B585B0102100226846FFF7B3
:101AC00005FA4348016851F010010160016811F006
:101AD000100104910499016851F02001016001682E
:101AE00011F0200104910499016851F00401016092
:101AF000016811F0040104910499016851F0080192
:101B00000160006810F0080004900498314D012233
:101B10004FF400512800FFF7C5FE00224FF440416A
:101B20002800FFF7BFFE2C4C00224FF4704120002C
:101B3000FFF7B8FE4FF400500090112001900020F4
:101B400002900220039069462800FFF791FD4FF4B0
:101B5000404000901120019000200290022003904C
:101B600069462800FFF784FD302000901B48019053
:101B70000020029069461A48FFF77AFD40F60740B8
:101B80000090002001900020029069462000FFF79D
:101B90006FFD4FF4704000900120019000200290F2
:101BA0000220039069462000FFF762FD0022002119
:101BB0000A20FFF73AFF0A20FFF74CFF002200211E
:101BC0001720FFF732FF1720FFF744FF05B030BDA5
:101BD0001810024000100140000C014000001110DC
:101BE0000008014080B50949086850F0010008600C
:101BF000086810F0010000900098002200210B20DE
:101C0000FFF713FF0B20FFF725FF01BD1410024063
:101C10001FB50C2100226846FFF758F9474C484889
:101C200020604FF48070A060002020730020207599
:101C30005FF46020E06100206060042020612000EB
:101C400000F006F9002801D0FFF7D0FC002000903A
:101C500001200190072002906946200000F0A4FABC
:101C6000002801D0FFF7C2FC012000900220019063
:101C70006946200000F098FA002801D0FFF7B6FC72
:101C800002200090032001906946200000F08CFAA9
:101C9000002801D0FFF7AAFC032000900420019047
:101CA0006946200000F080FA002801D0FFF79EFC72
:101CB0001FBD30B585B004001021002201A8FFF738
:101CC00005F921681E48814236D11E48016851F449
:101CD00000710160016811F40071009100990168C0
:101CE00051F004010160006810F0040000900098B9
:101CF0000F2001900320029001A91348FFF7B8FCC0
:101D0000124D13482860002068600020A8608020E1
:101D1000E8604FF4807028614FF480606861202093
:101D2000A8610020E861280001F0B6F9002801D080
:101D3000FFF75CFC25626C6205B030BDFC1300202F
:101D4000002401401810024000080140B813002090
:101D50000800024080B5074807490160032141603F
:101D600040F6FF71816000F093FB002801D0FFF77F
:101D70003DFC01BD2C1400200030004080B52F48F0
:101D80002F4901604FF4964141600021816000219C
:101D9000C1604FF4806101610C21416100218161CA
:101DA0000021C16101F056FB002801D0FFF71EFCA5
:101DB00001BD30B585B00400102100226846FFF750
:101DC00085F821681E48814236D11E48016851F4C9
:101DD00080410160016811F4804104910499016817
:101DE00051F008010160006810F0080004900498A8
:101DF000402000900220019003200390124D69467C
:101E00002800FFF735FC8020009000200190002082
:101E1000029069462800FFF72BFC0C48016851F03E
:101E2000E06151F004010160002200212520FFF74C
:101E3000FCFD2520FFF70EFE05B030BD701300201D
:101E40000038014018100240000C0140040001401D
:101E50002DE9F04104005FF000080025002700266E
:101E6000002C01D1012092E0A068002801D0207D43
:101E70000028A06A002807D10020E062002084F832
:101E800024002000FFF715FF200000F081FAA16A6E
:101E9000C90675D40100C9B2002971D1A16A31F413
:101EA000885151F00201A16261680F43E1690F435B
:101EB000217B57EA4107A168B1F5807F02D0A16874
:101EC000012902D14FF4807100E000210D43217DF2
:101ED000012911D1217B002906D1A169491E55EAAA
:101EE000413555F4006507E0A16A51F02001A16277
:101EF000E16A51F00101E16221684A6832F4694205
:101F00002A4321684A6021688A68DFF864140A401D
:101F10003A4321688A60A168B1F5807F02D0A16848
:101F2000012902D14FF4807100E00021B1F5807FDA
:101F300003D12169491E09050E002168CA6A32F4DD
:101F4000700232432168CA6221688A68DFF824146B
:101F50000A40BA4207D10021E1620122A16A62F37C
:101F60000101A16212E0A16A31F0020151F01001F9
:101F7000A162E16A51F00101E1620121080005E07E
:101F8000A16A51F01001A16201210800C0B2BDE8B0
:101F9000F08138B50400002594F82400012801D10F
:101FA000022013E0012084F82400200000F0F0F962
:101FB0000100C9B2002905D1A16A31F4885151F05C
:101FC0000101A162002184F82410C0B232BD2DE9C4
:101FD000F84304000D0016005FF00009DFF8A0834D
:101FE0002068404504D02068DFF88C13884205D172
:101FF000DFF88803006810F4702000E0002000285B
:1020000040F0958094F82400012801D1022091E04D
:10201000012084F82400200000F06FF90700380048
:10202000C0B2002840F07F80A16ADFF85C03014065
:1020300051F48071A162DFF840132068884209D111
:10204000DFF83803006810F4702F01D1012002E09E
:10205000002000E0012000280DD0A06A30F480109C
:10206000A0622068406840051DD50120A16A60F388
:102070000D31A16217E0A06A50F48010A0622068C0
:10208000404502D02068884205D1DFF8F0020068A0
:1020900010F4806000E00020002804D00120A16A34
:1020A00060F30D31A162A06AC00404D5E06A30F08B
:1020B0000600E06201E00020E062002084F82400D5
:1020C0000FF22131206A81620FF26D31206AC16204
:1020D0000FF27531206A01637FF002012068016010
:1020E0002068806850F480702168886033002A007E
:1020F000206810F14C01206A01F001F82068806826
:1021000010F46020B0F5602F06D12068816851F48A
:10211000A001206881600BE02068816851F4801183
:102120002068816004E0002084F8240000E001279A
:102130003800C0B2BDE8F28370B50400002694F800
:102140002400012801D102202DE0012084F8240080
:10215000200000F01DF905002800C0B200281DD1A4
:102160002068816831F4807120688160206A90F86D
:102170002100022812D1206A01F00DF80500280084
:10218000C0B2002806D1A06A30F4885050F0010097
:10219000A06203E0A06A50F04000A062002084F832
:1021A00024002800C0B270BD78B4020000230020D3
:1021B000009092F82400012801D102209BE0012028
:1021C00082F824004868072812D21068446B1F2543
:1021D0004868461E05204643B540AC430D68486834
:1021E000461E05204643B5402C431068446329E051
:1021F00048680D2812D21068046B1F254868C61F56
:1022000005204643B540AC430D684868C61F05200D
:102210004643B5402C431068046313E01068C46A59
:102220001F254868B0F10D0605204643B540AC4374
:102230000D684868B0F10D0605204643B5402C43B3
:102240001068C46208680A2814D31068C468072597
:102250000868B0F10A0603204643B540AC438D68D8
:102260000868B0F10A0603204643B5402C431068C5
:10227000C4600FE01068046907260D680320454319
:10228000AE40B4438E680D6803204543AE403443EE
:10229000106804610868102802D00868112825D148
:1022A0001468374884421BD11068806800021DD42E
:1022B0001068806850F400001468A0600868102856
:1022C00014D1304804683148B4FBF0F40A20444388
:1022D00000940098002809D00098401E0090F8E76C
:1022E000906A50F02000906201200300002082F8E4
:1022F00024001800C0B272BC704738B50400002535
:102300000020009020688068C0072FD42068816872
:1023100051F00101206881601A4801681B48B1FB37
:10232000F0F000900098002803D00098401E009024
:10233000F8E701F09BFB050020688068C00715D412
:1023400001F094FB401B0328F6D320688068C00787
:10235000F2D4A06A50F01000A062E06A50F00100D0
:10236000E062002084F82400012000E0002032BD5B
:10237000FDF7E1FFFE0E1FFF00280140042401408D
:102380000024014004000020FEF1FFFF40420F0046
:1023900038B50400002520688068C0071FD5206874
:1023A0008168490849002068816001F05FFB0500F1
:1023B00020688068C00712D501F058FB401B032835
:1023C000F6D320688068C007F2D5A06A50F01000EC
:1023D000A062E06A50F00100E062012000E000200D
:1023E00032BD000038B50400656AA86A10F0500FCD
:1023F0001CD1A86A50F40070A8622868806810F4A4
:102400006020B0F5602F0DD1287B00280AD1A86A82
:1024100030F48070A862A86AC00403D4A86A50F09F
:102420000100A862280001F027FB03E02000296AD0
:10243000096B884731BD000038B505006C6A200083
:1024400001F01BFB31BD000038B50400656AA86AC5
:1024500050F04000A862E86A50F00400E8622800EA
:1024600001F00CFB31BD000070B5040001F0FEFA74
:102470000500260016F1010F02D0044800788619E5
:1024800001F0F4FA401BB042FAD370BD08000020FE
:1024900038B50400002C01D1012026E04CF6CC41D7
:1024A0002068016045F2555120680160616820682C
:1024B0004160A1682068816001F0D8FA05002068B9
:1024C000C06810F0030F0BD001F0D0FA401B282891
:1024D000F5D32068C06810F0030FF0D0032004E0AB
:1024E0004AF6AA2120680160002032BD01004AF6A8
:1024F000AA22086802600020704700002DE9F04F12
:1025000086B00325002600228DF8042000275FF006
:10251000000E5FF0000C0023059300230293D0E926
:1025200006239046D0E90223B8EB0208C0F82080C9
:10253000DFF82023036A934201DA130009E0D0F8A0
:10254000208042F21173984502DB42F2107300E0E2
:10255000036A036290F82F30002B24D00023C3635A
:10256000002319000B00DBB2FE2B0DDAD0F83C8003
:102570000B00DBB200EB8303D3F8203513EB080824
:10258000C0F83C80491CEDE7D0F83C80D0F82090A2
:1025900090F82F3003FB09F9642399FBF3F313EB55
:1025A0000808C0F83C80D0F8208090F82E3003FB5B
:1025B00008F8CDF80C800A23D0F82090D0F82085B8
:1025C000B9EB080990F8308008FB09F803FB08F81C
:1025D000904501DA944607E042F2117CE04502DBC7
:1025E00042F2107C00E0C446D0F83CE0964501DAA7
:1025F00096460AE0D0F83CE042F21178C64502DB8C
:1026000042F2107E01E0D0F83CE0C0F83CE04FF030
:10261000FF0EF0464146C9B200290FD04146C9B26B
:1026200000EB8101D1F81C15C1465FFA89F900EB76
:102630008909C9F82015B8F10108EBE7016AC0F86B
:102640002015D0F820902900C9B2894509DAA94699
:102650005FFA89F95FF0FF3101FB09F9016A8945E9
:1026600022DB9DF8041000290BD0DDF80CA0C16B13
:1026700011EB0A0A1CEB0A0A5FF0FF3909FB0AF9A1
:1026800006E00399D0F83C9019EB01091CEB09090D
:10269000914501DA914609E042F21171894502DB68
:1026A00042F2107902E001E05FF000096A4909781E
:1026B00002290BD0B0F82CA00AFB09FA42F21071E3
:1026C0009AFBF1FACDF810A004998184B0F824A007
:1026D000B0F81C11BAEB010A90F83210002928D08A
:1026E00000214164002188464146C9B2FE290EDA24
:1026F000D0F844B04146C9B200EB8101D1F82011B5
:1027000011EB0B0BC0F844B018F10108ECE7416C79
:102710000091D3460FFA8BFB90F8321001FB0BF1BE
:102720005FF0640B91FBFBF1DDF800B011EB0B01E6
:102730004164D3460FFA8BFB90F8311001FB0BFB81
:10274000CDF808B0514609B2D0F820B1B1EB0B0179
:1027500090F833B00BFB01F103FB01F3934201DA74
:10276000130006E042F211718B4202DB42F2107359
:10277000FFE7416C914201DA110009E0D0F844B062
:1027800042F211718B4502DB42F2107100E0416CA4
:1027900041647146C9B200290FD07146C9B200EB3D
:1027A0008101D1F81C11F0465FFA88F800EB880827
:1027B000C8F82011BEF1010EEBE7514609B2C0F88E
:1027C0002011D0463100C9B20FFA88F809B2884505
:1027D0000ADAB0465FFA88F85FF0FF3101FB08F8CB
:1027E000514609B2884518DB3900C9B200290CD01E
:1027F000DDF80880416C11EB080813EB08085FF066
:10280000FF3101FB08F8444607E0DDF80880416C21
:1028100011EB080813EB08084446944207DB42F228
:1028200011718C4202DB42F2107200E022000A2198
:1028300092FBF1F10187016A002904D55FF0FF31B5
:1028400080F83A1002E0012180F83A1006B0BDE8A5
:10285000F08F0000F0D8FFFF481400202DE9FC475E
:102860000400002C01D10120ECE12078C0076BD5D9
:10287000DFF8D805016811F00C01042907D00168C0
:1028800011F00C0108290CD10068C00309D5DFF84C
:10289000B8050068800357D56068002854D101202E
:1028A000D0E16068B0F5803F06D1DFF89C1508687C
:1028B00050F48030086026E0606800280AD1DFF814
:1028C0008805016831F480310160016831F48021AC
:1028D000016018E06068B0F5A02F0AD1DFF8680544
:1028E000016851F480210160016851F48031016078
:1028F00009E0DFF85405016831F4803101600168B6
:1029000031F480210160606800280ED001F0AEF83B
:102910000600DFF834050068800315D401F0A6F83E
:10292000801B6528F5D303208CE101F09FF8060099
:10293000DFF814050068800306D501F097F8801BC6
:102940006528F5D303207DE12078800750D5DFF896
:10295000FC04016811F00C0F07D0016811F00C01A4
:10296000082914D10068C00311D4DFF8DC04016821
:10297000890704D52169012901D0012062E102689B
:1029800032F0F802616952EAC102026030E0206967
:1029900000281AD00121DFF8C804016001F066F8B0
:1029A0000600DFF8A4040168890706D401F05EF888
:1029B000801B0328F5D3032044E1026832F0F802BB
:1029C000616952EAC102026012E00021DFF890045E
:1029D000016001F04BF80600DFF86C040068800726
:1029E00006D501F043F8801B0328F5D3032029E125
:1029F000207800072CD5A069002816D00120DFF828
:102A00006414086001F032F80600DFF85004006832
:102A1000800706D401F02AF8801B0328F5D3032091
:102A200010E1012000F0FDF912E00020DFF834147D
:102A3000086001F01BF80600DFF82004006880073A
:102A400006D501F013F8801B0328F5D30320F9E025
:102A50002078400740F189805FF00008DFF80874B3
:102A60003868C0000AD4386850F080503860386840
:102A700010F080500090009801208046DFF8EC9321
:102A8000D9F80000C00513D4D9F8000050F48070C4
:102A9000C9F8000000F0EAFF0600D9F80000C00500
:102AA00006D400F0E3FF801B6528F6D30320C9E0BD
:102AB000E068012806D1DFF8B813086850F001007B
:102AC000086025E0E06800280AD1DFF8A403016867
:102AD000490849000160016831F00401016017E014
:102AE000E06805280AD1DFF88803016851F0040185
:102AF0000160016851F00101016009E0DFF8700335
:102B00000168490849000160016831F00401016071
:102B1000E068002810D000F0A9FF0600DFF850039D
:102B20000068800719D400F0A1FF801B41F28931B1
:102B30008842F3D3032085E000F098FF0600DFF819
:102B400030030068800708D500F090FF801B41F239
:102B500089318842F3D3032074E04046C0B2012893
:102B600003D1386830F080503860E069002868D0C0
:102B7000DFF8D872386810F00C0008284ED0E069F1
:102B8000022838D1DFF8EC820020C8F8000000F0FD
:102B90006DFF8246DFF8B092D9F80000800107D5BA
:102BA00000F064FFB0EB0A000328F3D3032049E0F0
:102BB000206AB0F5803F05D1396831F40031A06852
:102BC00001433960396831F47411206A0143606A45
:102BD000014339600120C8F8000000F047FF0600FB
:102BE000D9F8000080012CD400F040FF801B03289E
:102BF000F6D3032026E00021DFF87802016000F020
:102C000035FF0600DFF840020068800119D500F0AA
:102C10002DFF801B0328F5D3032013E0E069012872
:102C200001D101200EE03868050015F48031206ADA
:102C3000814204D115F47010616A884201D00120EC
:102C400000E00020BDE8F6872DE9F04104000D000A
:102C5000002C01D101209BE0DFF81C72386810F0D5
:102C60000700A8420BD23868C008C000284338606B
:102C7000386810F00700A84201D0012088E02078D1
:102C8000800716D52078400704D57049086850F4AD
:102C9000E06008602078000704D56C49086850F4AB
:102CA00060500860694A116831F0F001A068014382
:102CB00011602078C00735D56068012805D16248C9
:102CC0000068800310D4012062E06068022805D10A
:102CD0005D480068800107D4012059E05A48006827
:102CE000800701D4012053E0DFF86081D8F800109C
:102CF0008908890060680143C8F8001000F0B6FE3A
:102D00000600D8F8001011F00C016068B1EB800FDC
:102D100008D000F0ABFE801B41F289318842F0D32D
:102D2000032035E0386810F0070085420BD2386880
:102D3000C008C00028433860386810F00700A84277
:102D400001D0012024E02078400706D53F4A1168D1
:102D500031F4E061E068014311602078000707D595
:102D60003A4A106830F46050216950EAC10010609E
:102D700000F010F84149354A1268C2F30312895C29
:102D8000C840344908603448006800F01DF900204C
:102D9000BDE8F081F0B400270021002200230025C7
:102DA0002A48046814F00C06042E02D0082E02D023
:102DB0001BE027481AE0324FC4F38346BE5D330060
:102DC000E6030CD52F4E0068C0F34040305C010094
:102DD0001F4800FB03F0B0FBF1F0020003E02A48BB
:102DE00000FB03F00200100000E01948F0BC70473F
:102DF00018480068704780B5FFF7FAFF2349134A67
:102E00001268C2F30222895CC84002BD80B5FFF798
:102E1000EFFF1E490D4A1268C2F3C222895CC84006
:102E200002BD81B00B490A68D2084FF47A71B2FB37
:102E3000F1F101FB00F1009100BF00994A1E0092E0
:102E40000029F9D101B0704700100240041002407F
:102E500000127A000400002000000020241002402C
:102E600000004242800442421C10024000700040B8
:102E70002010024060004242002002404C3D000809
:102E80003C3D0008CA0E000800093D00783D0008DE
:102E90002DE9F8430500002600242878C0076CD5EA
:102EA0000027DFF80481D8F80000C0000DD4D8F85E
:102EB000000050F08050C8F80000D8F8000010F072
:102EC00080500090009801200700DFF8E090D9F8CA
:102ED0000000C00513D4D9F8000050F48070C9F880
:102EE000000000F0C3FD0600D9F80000C00506D4BC
:102EF00000F0BCFD801B6528F6D3032052E0DFF80C
:102F0000B090D9F8000010F440700400002C22D0DA
:102F1000686810F4407084421DD0D9F8000030F485
:102F20004070040023480121016000210160C9F8BC
:102F30000040E0070FD500F099FD0600D9F8000029
:102F4000800708D400F092FD801B41F2893188424D
:102F5000F4D3032026E0D9F8001031F440716868FA
:102F60000143C9F800103800C0B2012805D1D8F8D3
:102F7000000030F08050C8F800002878800706D59F
:102F80000D4A116831F44041A86801431160287866
:102F9000C00606D5084A116831F48001E86801438B
:102FA00011600020BDE8F2831C1002400070004058
:102FB000201002404004424204100240002848BF52
:102FC000404270477047000010B504004FF47A701B
:102FD0000D490978B0FBF1F00C490968B1FBF0F03C
:102FE000FEF73FFD002801D001200CE0102C09D293
:102FF000002221005FF0FF30FEF717FD0448046057
:10300000002000E0012010BD080000200400002086
:103010000000002081B01D48016851F001010160ED
:10302000016811F0010100910099016851F004015B
:103030000160016851F008010160016851F0100160
:103040000160134A116851F080511160116811F04C
:103050008051009100990F490A6852F000720A608D
:103060000A6832F0E06252F000720A60026852F0C0
:10307000010202605FF0E0600860086830F0E06024
:1030800050F00070086001B0704700BF1810024097
:103090001C1002400400014001000022002901D15F
:1030A00001202BE00B68DFF85C03C3181420B3FB8E
:1030B000F0F080000864DFF85003C863022081F854
:1030C0002100086803686FF30D134868034388689C
:1030D0000343C86803430869034348690343886995
:1030E0000343C86903430868036000208863012024
:1030F00081F82100002081F82000002070472DE990
:10310000F04104000D0016001F005FF0000894F865
:103110002000012801D102203BE0012084F820009A
:1031200094F8210001282DD1022084F821000020EC
:10313000A0632068016849084900206801603B00DD
:1031400032002900200000F06FF9E06A002806D064
:103150002068016851F00E01206801600BE02068D2
:10316000016831F00401206801602068016851F0B5
:103170000A01206801602068016851F0010120689F
:10318000016004E0002084F82000022080464046D0
:10319000C0B2BDE8F0810100002291F821000228B0
:1031A00006D004208863002081F82000012018E068
:1031B0000868036833F00E03086803600868036852
:1031C0005B085B00086803600123086C8340C86BE0
:1031D0004360012081F82100002081F820001000C8
:1031E000C0B2704738B50400002594F821000228C9
:1031F00004D00420A063012005004AE02068016893
:1032000031F00E012068016020680168490849001A
:10321000206801602168DFF8F401814201D10121B9
:1032200028E02168DFF8E801814201D1102121E086
:103230002168DFF8E001814202D14FF4807119E08A
:103240002168DFF8D401814202D14FF4805111E0AE
:103250002168DFF8C801814202D15FF4803109E0C2
:103260002168DFF8BC01814202D15FF4801101E0E6
:103270005FF08071DFF8AC010160012084F821006B
:10328000002084F82000606B002802D02000616BD1
:1032900088472800C0B232BD70B50600F06B0468E4
:1032A000306805680421306C81400C423ED06807CC
:1032B0003CD530680068800605D43068006830F07E
:1032C00004003168086031685048814201D104200F
:1032D00023E031684E48814201D140201DE0316831
:1032E0004C48814202D14FF4806016E031684A4870
:1032F000814202D14FF480400FE03168474881425B
:1033000002D15FF4802008E031684548814202D153
:103310005FF4800001E05FF0806042490860F06A7D
:1033200000286DD03000F16A884769E00221306CD6
:1033300081400C4244D0A80742D53068006880061E
:1033400008D43068016831F00A013068016001205A
:1033500086F8210031682D48814201D1022023E006
:1033600030682B49884201D120201DE0316829486E
:10337000814202D14FF4007016E031682648814244
:1033800002D14FF400500FE031682448814202D14D
:103390005FF4003008E031682148814202D15FF4D7
:1033A000001001E05FF000701E490860002086F800
:1033B0002000B06A002823D03000B16A88471FE09F
:1033C0000821306C81400C421AD0280718D530688B
:1033D000016831F00E01306801600121306C8140DC
:1033E000F06B41600120B063012086F821000020CD
:1033F00086F82000306B002802D03000316B8847FF
:1034000070BD0000F8FFFDBF000002400800024050
:103410001C000240300002404400024058000240BC
:103420006C0002400400024030B40125046CA54049
:10343000C46B6560046863604468102C04D1046840
:10344000A2600468E16003E00468A1600468E260CF
:1034500030BC704710B50400002C01D1012035E0CC
:10346000A0690028FFD194F84100002805D1002070
:1034700084F840002000FEF79CFC242084F84100E2
:103480002068C16831F400512068C160200000F05C
:103490007DFA2068016931F490412068016120685B
:1034A000416931F02A01206841612068C16851F406
:1034B00000512068C16000206064202084F8410031
:1034C000202084F8420000206063002010BD2DE918
:1034D000FC470600306807683068D0F80C80306818
:1034E000D0F814900020002517F00F04002C08D10C
:1034F000B80606D55FEA886003D5300000F0CBF946
:1035000043E1002C77D05FEAC97002D418F4907FB1
:1035100071D03800C00706D55FEAC85003D5706C7B
:1035200050F001007064780706D54846C00703D5FF
:10353000706C50F002007064B80706D54846C007AA
:1035400003D5706C50F004007064380709D55FEA49
:10355000886002D44846C00703D5706C50F008005C
:103560007064706C002845D0B80605D55FEA8860A5
:1035700002D5300000F08FF930684069800910F002
:1035800001000500706C000701D4002D2DD0300023
:1035900000F0FDF830684069400622D530681430EC
:1035A00050E8000F30F040000100306810F11402C4
:1035B00042E800100028F1D1F06B00280DD00FF286
:1035C0003921F06B4163F06BFFF70CFE002811D03E
:1035D000F06BF16B496B88470CE0300000F04FFA5C
:1035E00008E0300000F04BFA04E0300000F047FA49
:1035F00000207064C9E0306B012840F0B480F80608
:1036000040F1B1805FEAC86040F1AD8000200090D9
:10361000306800680090306840680090009830681A
:10362000406940065CD5F06B0068D0F804A05046B5
:1036300080B2002853D05046B18D80B288424ED21D
:10364000A6F82EA0F06B806920283FD030680C309F
:1036500050E8000F30F480700100306810F10C0267
:1036600042E800100028F1D13068143050E8000F13
:10367000400840000100306810F1140242E80010D8
:103680000028F1D13068143050E8000F30F04000CD
:103690000100306810F1140242E800100028F1D156
:1036A000202086F842000020306330680C3050E85B
:1036B000000F30F010000100306810F10C0242E8F9
:1036C00000100028F1D1F06BFFF765FD0220706358
:1036D000B18DF08D091A89B2300000F0D1F954E0B3
:1036E000B6F82CA0F08DBAEB000AF08D002839D086
:1036F000504680B2002835D030680C3050E8000FBA
:1037000030F490700100306810F10C0242E80010B3
:103710000028F1D13068143050E8000F4008400014
:103720000100306810F1140242E800100028F1D1C5
:10373000202086F842000020306330680C3050E8CA
:10374000000F30F010000100306810F10C0242E868
:1037500000100028F1D102207063514689B2300078
:1037600000F08EF911E0380606D55FEA086003D54F
:10377000300000F04DF808E0780606D55FEA4860B2
:1037800003D5300000F077F8FFE7BDE8F387016864
:103790000C3151E8001F31F490710A00016811F1F9
:1037A0000C0343E800210029F1D10168143151E8EC
:1037B000001F490849000A00016811F1140343E899
:1037C00000210029F1D1016B01290DD101680C31D3
:1037D00051E8001F31F010010A00016811F10C03DB
:1037E00043E800210029F1D1202180F84210002176
:1037F000016370470000000038B50400656A0020CE
:10380000E8850020E884280000F039F931BD000087
:10381000010091F8410021282BD18868B0F5805F24
:103820000DD1086900280AD1086A02001388DB0557
:10383000DB0D08684360086A801C086205E00B6ABB
:10384000581C08621B7808684360C88C401EC884F6
:1038500080B200280BD10868C36833F08003086881
:10386000C3600868C36853F040030868C360002061
:1038700000E00220704710B504002068C16831F0F4
:1038800040012068C160202084F84100200000F041
:10389000F8F8002010BD7CB5040094F842002228FE
:1038A00072D1A068B0F5805F0DD1206900280AD1DF
:1038B0000026A56A20684068C005C00D2880A06A5F
:1038C000801CA06217E0A66A0025A068B0F5805FA2
:1038D00005D0A068002806D12069002803D12068FF
:1038E0004068307004E02068406810F07F0030705D
:1038F000A06A401CA062E08D401EE08580B20028D6
:1039000040D12068C06830F020002168C86020687D
:10391000C06830F480702168C86020684069400841
:10392000400021684861202084F842000020606344
:10393000206B012821D10020206320680C3050E842
:10394000000F30F010000100206810F10C0242E876
:1039500000100028F1D120680068C00608D50020BA
:1039600000902068006800902068406800900098EF
:10397000A18D200000F084F802E0200000F082F821
:10398000002002E0002000E0022076BDF8B504002F
:103990002068016931F44051E06801432068016109
:1039A000A1682069014365690D432068C1682D48FD
:1039B000014029432068C1602068416931F44071A9
:1039C000A06901432068416121682748814202D1F2
:1039D000FFF71CFA01E0FFF70EFA7FF063011922EE
:1039E00002FB00F36668B600B3FBF6F36426B3FB94
:1039F000F6F302FB00F66768BF00B6FBF7F602FBC2
:103A000000F7D4F804C05FEA8C0CB7FBFCFC642719
:103A1000BCFBF7F701FB0766370132376426B7FBBB
:103A2000F6F616F0F00616EB031602FB00F36768D5
:103A3000BF00B3FBF7F302FB00F26768BF00B2FB05
:103A4000F7F26427B2FBF7F201FB023109013231D0
:103A50006422B1FBF2F111F00F018E1921688E6022
:103A6000F1BD0000F3E9FFFF0038014001480068A4
:103A7000704700BF40140020704770477047704780
:103A80007047704770470000FEE7FEE7FEE7FEE77D
:103A9000FEE770477047704780B500F0D1F801BD70
:103AA00080B539490888401C08801020FDF714FFB4
:103AB00001BD80B53548FFF7EFFB01BD80B5344946
:103AC0000888401C08802020FDF706FF01BD38B59E
:103AD000304C3149200000F06BF8304D304928005F
:103AE00000F066F86320012811DB04EB4001B1F817
:103AF000522004EB4001A1F8542005EB4001B1F83D
:103B0000522005EB4001A1F85420401EEBE720882D
:103B1000A4F854002888A5F854000020A4F81C013B
:103B20000020A5F81C010021642913DAB4F81C2137
:103B300004EB4100B0F854008218A4F81C21B5F839
:103B40001C2105EB4100B0F854008218A5F81C2197
:103B5000491CE9E7B4F81C01A4F81C01B5F81C01E4
:103B6000A5F81C010F4801780A2901D10021017034
:103B70000178491C01700C48FCF7B6FC31BD80B5DA
:103B80000A48FFF7A4FC01BD44140020B81300202C
:103B900046140020100000205012002030090020A0
:103BA000E012002049140020281300207013002088
:103BB00070B40A68566A90F85220002A05D1002293
:103BC0000280012280F852202EE03300028A9BB24C
:103BD000934202D10022028026E0038A320092B290
:103BE000934211D20A681268D20608D5B0F9103093
:103BF0005B420A68D26A9B1AF318038014E0B0F99A
:103C00001020B21A02800FE00A681268D20604D5AA
:103C1000B0F91020B21A028006E00A68D36A9B1934
:103C2000B0F910209B1A0380D0E90245B0F90020BA
:103C3000D317A2186B41C0E90223068270BC7047FB
:103C400003490A680348007882180A60704700BF79
:103C5000401400200800002030B4002412E050F886
:103C6000043BDA0744BF4B445B1E091F042943F899
:103C7000044BFAD21A468D0744BF1C80921CCB0716
:103C800048BF147050F8041B0029E8D130BC7047BD
:103C900010B5034A7A440832024C7C44A41D03E068
:103CA0001C0000003C00000004E01168101D1144DD
:103CB00088470246A242F8D110BD00009DFFFFFFD9
:103CC0003C1400001000002000000000EBCDFFFFBE
:103CD0000C00000098000000000000200000000020
:103CE00000F00DF8002801D0FFF7D2FFAFF30080FD
:103CF0000020AFF30080FDF71DF900F002F801206D
:103D0000704700F001B800000746384600F002F89E
:103D1000FBE700002021090326311820ABBEF9E79C
:103D20000548014603B4684680F30988AFF3008074
:103D3000AFF30080FFF7D4FFA5EDF5FE0203040505
:103D4000060708090A0B0C0D0E0F101000000000EA
:103D5000000000000102030406070809014880472B
:103D600001480047193E0008213D000810000000EE
:103D70000024F40001000000000000000102030420
:103D8000FFF7FEBFFFF7FEBFFFF7FEBFFFF7FEBF67
:103D9000FFF7FEBFFFF7FEBFFFF7FEBFFFF7FEBF57
:103DA000FFF7FEBFFFF7FEBFFFF7FEBFFFF7FEBF47
:103DB000FFF7FEBFFFF7FEBFFFF7FEBFFFF7FEBF37
:103DC000FFF7FEBFFFF7FEBFFFF7FEBFFFF7FEBF27
:103DD000FFF7FEBFFFF7FEBFFFF7FEBFFFF7FEBF17
:103DE000FFF7FEBFFFF7FEBFFFF7FEBFFFF7FEBF07
:103DF000FFF7FEBFFFF7FEBFFFF7FEBFFFF7FEBFF7
:103E0000FFF7FEBFFFF7FEBFFFF7FEBFFFF7FEBFE6
:0A3E1000FFF7FEBFFFF7FEBF70478B
:0400000508003D2191
:00000001FF
